{
  "address": "0xac70589d20a1c2d3e03d2ba8cd04027d2f6204cc",
  "abi": [
    {
      "inputs": [
        {
          "internalType": "contract IPoolAddressesProvider",
          "name": "provider",
          "type": "address"
        },
        {
          "internalType": "address[]",
          "name": "assets",
          "type": "address[]"
        },
        {
          "internalType": "address[]",
          "name": "sources",
          "type": "address[]"
        },
        {
          "internalType": "address",
          "name": "fallbackOracle",
          "type": "address"
        },
        {
          "internalType": "address",
          "name": "baseCurrency",
          "type": "address"
        },
        {
          "internalType": "uint256",
          "name": "baseCurrencyUnit",
          "type": "uint256"
        }
      ],
      "stateMutability": "nonpayable",
      "type": "constructor"
    },
    {
      "anonymous": false,
      "inputs": [
        {
          "indexed": true,
          "internalType": "address",
          "name": "asset",
          "type": "address"
        },
        {
          "indexed": true,
          "internalType": "address",
          "name": "source",
          "type": "address"
        }
      ],
      "name": "AssetSourceUpdated",
      "type": "event"
    },
    {
      "anonymous": false,
      "inputs": [
        {
          "indexed": true,
          "internalType": "address",
          "name": "baseCurrency",
          "type": "address"
        },
        {
          "indexed": false,
          "internalType": "uint256",
          "name": "baseCurrencyUnit",
          "type": "uint256"
        }
      ],
      "name": "BaseCurrencySet",
      "type": "event"
    },
    {
      "anonymous": false,
      "inputs": [
        {
          "indexed": true,
          "internalType": "address",
          "name": "fallbackOracle",
          "type": "address"
        }
      ],
      "name": "FallbackOracleUpdated",
      "type": "event"
    },
    {
      "inputs": [],
      "name": "ADDRESSES_PROVIDER",
      "outputs": [
        {
          "internalType": "contract IPoolAddressesProvider",
          "name": "",
          "type": "address"
        }
      ],
      "stateMutability": "view",
      "type": "function"
    },
    {
      "inputs": [],
      "name": "BASE_CURRENCY",
      "outputs": [
        {
          "internalType": "address",
          "name": "",
          "type": "address"
        }
      ],
      "stateMutability": "view",
      "type": "function"
    },
    {
      "inputs": [],
      "name": "BASE_CURRENCY_UNIT",
      "outputs": [
        {
          "internalType": "uint256",
          "name": "",
          "type": "uint256"
        }
      ],
      "stateMutability": "view",
      "type": "function"
    },
    {
      "inputs": [
        {
          "internalType": "address",
          "name": "asset",
          "type": "address"
        }
      ],
      "name": "getAssetPrice",
      "outputs": [
        {
          "internalType": "uint256",
          "name": "",
          "type": "uint256"
        }
      ],
      "stateMutability": "view",
      "type": "function"
    },
    {
      "inputs": [
        {
          "internalType": "address[]",
          "name": "assets",
          "type": "address[]"
        }
      ],
      "name": "getAssetsPrices",
      "outputs": [
        {
          "internalType": "uint256[]",
          "name": "",
          "type": "uint256[]"
        }
      ],
      "stateMutability": "view",
      "type": "function"
    },
    {
      "inputs": [],
      "name": "getFallbackOracle",
      "outputs": [
        {
          "internalType": "address",
          "name": "",
          "type": "address"
        }
      ],
      "stateMutability": "view",
      "type": "function"
    },
    {
      "inputs": [
        {
          "internalType": "address",
          "name": "asset",
          "type": "address"
        }
      ],
      "name": "getSourceOfAsset",
      "outputs": [
        {
          "internalType": "address",
          "name": "",
          "type": "address"
        }
      ],
      "stateMutability": "view",
      "type": "function"
    },
    {
      "inputs": [
        {
          "internalType": "address[]",
          "name": "assets",
          "type": "address[]"
        },
        {
          "internalType": "address[]",
          "name": "sources",
          "type": "address[]"
        }
      ],
      "name": "setAssetSources",
      "outputs": [],
      "stateMutability": "nonpayable",
      "type": "function"
    },
    {
      "inputs": [
        {
          "internalType": "address",
          "name": "fallbackOracle",
          "type": "address"
        }
      ],
      "name": "setFallbackOracle",
      "outputs": [],
      "stateMutability": "nonpayable",
      "type": "function"
    }
  ],
  "contractName": "AaveOracle",
  "sourceName": "contracts/misc/AaveOracle.sol",
  "bytecode": "0x60e060405234801562000010575f80fd5b5060405162000f4438038062000f44833981016040819052620000339162000342565b6001600160a01b0386166080526200004b83620000aa565b620000578585620000f3565b6001600160a01b03821660a081905260c08290526040518281527fe27c4c1372396a3d15a9922f74f9dfc7c72b1ad6d63868470787249c356454c19060200160405180910390a250505050505062000476565b600180546001600160a01b0319166001600160a01b0383169081179091556040517fce7a780d33665b1ea097af5f155e3821b809ecbaa839d3b33aa83ba28168cefb905f90a250565b8051825114604051806040016040528060028152602001611b9b60f11b815250906200013d5760405162461bcd60e51b8152600401620001349190620003f0565b60405180910390fd5b505f5b825181101562000255578181815181106200015f576200015f6200043d565b60200260200101515f808584815181106200017e576200017e6200043d565b60200260200101516001600160a01b03166001600160a01b031681526020019081526020015f205f6101000a8154816001600160a01b0302191690836001600160a01b03160217905550818181518110620001dd57620001dd6200043d565b60200260200101516001600160a01b03168382815181106200020357620002036200043d565b60200260200101516001600160a01b03167f22c5b7b2d8561d39f7f210b6b326a1aa69f15311163082308ac4877db6339dc160405160405180910390a3806200024c8162000451565b91505062000140565b505050565b6001600160a01b03811681146200026f575f80fd5b50565b634e487b7160e01b5f52604160045260245ffd5b805162000293816200025a565b919050565b5f82601f830112620002a8575f80fd5b815160206001600160401b0380831115620002c757620002c762000272565b8260051b604051601f19603f83011681018181108482111715620002ef57620002ef62000272565b6040529384528581018301938381019250878511156200030d575f80fd5b83870191505b848210156200033757620003278262000286565b8352918301919083019062000313565b979650505050505050565b5f805f805f8060c0878903121562000358575f80fd5b865162000365816200025a565b60208801519096506001600160401b038082111562000382575f80fd5b620003908a838b0162000298565b96506040890151915080821115620003a6575f80fd5b50620003b589828a0162000298565b9450506060870151620003c8816200025a565b6080880151909350620003db816200025a565b8092505060a087015190509295509295509295565b5f6020808352835180828501525f5b818110156200041d57858101830151858201604001528201620003ff565b505f604082860101526040601f19601f8301168501019250505092915050565b634e487b7160e01b5f52603260045260245ffd5b5f600182016200046f57634e487b7160e01b5f52601160045260245ffd5b5060010190565b60805160a05160c051610a8f620004b55f395f8181610103015261035701525f81816101a9015261032c01525f8181609901526104e60152610a8f5ff3fe608060405234801561000f575f80fd5b5060043610610090575f3560e01c806392bf2be01161006357806392bf2be0146101335780639d23d9f21461015e578063abfd53101461017e578063b3596f0714610191578063e19f4700146101a4575f80fd5b80630542975c14610094578063170aee73146100d85780636210308c146100ed5780638c89b64f146100fe575b5f80fd5b6100bb7f000000000000000000000000000000000000000000000000000000000000000081565b6040516001600160a01b0390911681526020015b60405180910390f35b6100eb6100e6366004610825565b6101cb565b005b6001546001600160a01b03166100bb565b6101257f000000000000000000000000000000000000000000000000000000000000000081565b6040519081526020016100cf565b6100bb610141366004610825565b6001600160a01b039081165f908152602081905260409020541690565b61017161016c366004610888565b6101df565b6040516100cf91906108c7565b6100eb61018c36600461090a565b610292565b61012561019f366004610825565b61030b565b6100bb7f000000000000000000000000000000000000000000000000000000000000000081565b6101d36104e3565b6101dc8161067d565b50565b60605f8267ffffffffffffffff8111156101fb576101fb610971565b604051908082528060200260200182016040528015610224578160200160208202803683370190505b5090505f5b8381101561028a5761025b85858381811061024657610246610985565b905060200201602081019061019f9190610825565b82828151811061026d5761026d610985565b60209081029190910101528061028281610999565b915050610229565b509392505050565b61029a6104e3565b6103058484808060200260200160405190810160405280939291908181526020018383602002808284375f92019190915250506040805160208088028281018201909352878252909350879250869182918501908490808284375f920191909152506106c692505050565b50505050565b6001600160a01b038082165f818152602081905260408120549092908116917f0000000000000000000000000000000000000000000000000000000000000000909116900361037c57507f000000000000000000000000000000000000000000000000000000000000000092915050565b6001600160a01b0381166103fd5760015460405163b3596f0760e01b81526001600160a01b0385811660048301529091169063b3596f0790602401602060405180830381865afa1580156103d2573d5f803e3d5ffd5b505050506040513d601f19601f820116820180604052508101906103f691906109bd565b9392505050565b5f816001600160a01b03166350d25bcd6040518163ffffffff1660e01b8152600401602060405180830381865afa15801561043a573d5f803e3d5ffd5b505050506040513d601f19601f8201168201806040525081019061045e91906109bd565b90505f81131561046f579392505050565b60015460405163b3596f0760e01b81526001600160a01b0386811660048301529091169063b3596f0790602401602060405180830381865afa1580156104b7573d5f803e3d5ffd5b505050506040513d601f19601f820116820180604052508101906104db91906109bd565b949350505050565b5f7f00000000000000000000000000000000000000000000000000000000000000006001600160a01b031663707cd7166040518163ffffffff1660e01b8152600401602060405180830381865afa158015610540573d5f803e3d5ffd5b505050506040513d601f19601f8201168201806040525081019061056491906109d4565b604051629f719760e51b81523360048201529091506001600160a01b038216906313ee32e090602401602060405180830381865afa1580156105a8573d5f803e3d5ffd5b505050506040513d601f19601f820116820180604052508101906105cc91906109ef565b806106385750604051637be53ca160e01b81523360048201526001600160a01b03821690637be53ca190602401602060405180830381865afa158015610614573d5f803e3d5ffd5b505050506040513d601f19601f8201168201806040525081019061063891906109ef565b604051806040016040528060018152602001603560f81b815250906106795760405162461bcd60e51b81526004016106709190610a0e565b60405180910390fd5b5050565b600180546001600160a01b0319166001600160a01b0383169081179091556040517fce7a780d33665b1ea097af5f155e3821b809ecbaa839d3b33aa83ba28168cefb905f90a250565b8051825114604051806040016040528060028152602001611b9b60f11b815250906107045760405162461bcd60e51b81526004016106709190610a0e565b505f5b825181101561080c5781818151811061072257610722610985565b60200260200101515f8085848151811061073e5761073e610985565b60200260200101516001600160a01b03166001600160a01b031681526020019081526020015f205f6101000a8154816001600160a01b0302191690836001600160a01b0316021790555081818151811061079a5761079a610985565b60200260200101516001600160a01b03168382815181106107bd576107bd610985565b60200260200101516001600160a01b03167f22c5b7b2d8561d39f7f210b6b326a1aa69f15311163082308ac4877db6339dc160405160405180910390a38061080481610999565b915050610707565b505050565b6001600160a01b03811681146101dc575f80fd5b5f60208284031215610835575f80fd5b81356103f681610811565b5f8083601f840112610850575f80fd5b50813567ffffffffffffffff811115610867575f80fd5b6020830191508360208260051b8501011115610881575f80fd5b9250929050565b5f8060208385031215610899575f80fd5b823567ffffffffffffffff8111156108af575f80fd5b6108bb85828601610840565b90969095509350505050565b602080825282518282018190525f9190848201906040850190845b818110156108fe578351835292840192918401916001016108e2565b50909695505050505050565b5f805f806040858703121561091d575f80fd5b843567ffffffffffffffff80821115610934575f80fd5b61094088838901610840565b90965094506020870135915080821115610958575f80fd5b5061096587828801610840565b95989497509550505050565b634e487b7160e01b5f52604160045260245ffd5b634e487b7160e01b5f52603260045260245ffd5b5f600182016109b657634e487b7160e01b5f52601160045260245ffd5b5060010190565b5f602082840312156109cd575f80fd5b5051919050565b5f602082840312156109e4575f80fd5b81516103f681610811565b5f602082840312156109ff575f80fd5b815180151581146103f6575f80fd5b5f6020808352835180828501525f5b81811015610a3957858101830151858201604001528201610a1d565b505f604082860101526040601f19601f830116850101925050509291505056fea2646970667358221220fb6bff1bc2646f5bb8fff15f9a24de50daf465ff44b9aba62d5c0bc190da045e64736f6c63430008140033",
  "linkReferences": {},
  "deployedLinkReferences": {},
  "immutableReferences": {
    "9981": [
      {
        "length": 32,
        "start": 153
      },
      {
        "length": 32,
        "start": 1254
      }
    ],
    "9992": [
      {
        "length": 32,
        "start": 425
      },
      {
        "length": 32,
        "start": 812
      }
    ],
    "9995": [
      {
        "length": 32,
        "start": 259
      },
      {
        "length": 32,
        "start": 855
      }
    ]
  },
  "inputSourceName": "project/contracts/misc/AaveOracle.sol",
  "devdoc": {
    "author": "Aave",
    "events": {
      "AssetSourceUpdated(address,address)": {
        "details": "Emitted after the price source of an asset is updated",
        "params": {
          "asset": "The address of the asset",
          "source": "The price source of the asset"
        }
      },
      "BaseCurrencySet(address,uint256)": {
        "details": "Emitted after the base currency is set",
        "params": {
          "baseCurrency": "The base currency of used for price quotes",
          "baseCurrencyUnit": "The unit of the base currency"
        }
      },
      "FallbackOracleUpdated(address)": {
        "details": "Emitted after the address of fallback oracle is updated",
        "params": {
          "fallbackOracle": "The address of the fallback oracle"
        }
      }
    },
    "kind": "dev",
    "methods": {
      "constructor": {
        "params": {
          "assets": "The addresses of the assets",
          "baseCurrency": "The base currency used for the price quotes. If USD is used, base currency is 0x0",
          "baseCurrencyUnit": "The unit of the base currency",
          "fallbackOracle": "The address of the fallback oracle to use if the data of an        aggregator is not consistent",
          "provider": "The address of the new PoolAddressesProvider",
          "sources": "The address of the source of each asset"
        }
      },
      "getAssetPrice(address)": {
        "params": {
          "asset": "The address of the asset"
        },
        "returns": {
          "_0": "The price of the asset"
        }
      },
      "getAssetsPrices(address[])": {
        "params": {
          "assets": "The list of assets addresses"
        },
        "returns": {
          "_0": "The prices of the given assets"
        }
      },
      "getFallbackOracle()": {
        "returns": {
          "_0": "The address of the fallback oracle"
        }
      },
      "getSourceOfAsset(address)": {
        "params": {
          "asset": "The address of the asset"
        },
        "returns": {
          "_0": "The address of the source"
        }
      },
      "setAssetSources(address[],address[])": {
        "params": {
          "assets": "The addresses of the assets",
          "sources": "The addresses of the price sources"
        }
      },
      "setFallbackOracle(address)": {
        "params": {
          "fallbackOracle": "The address of the fallback oracle"
        }
      }
    },
    "stateVariables": {
      "ADDRESSES_PROVIDER": {
        "return": "The address of the PoolAddressesProvider contract",
        "returns": {
          "_0": "The address of the PoolAddressesProvider contract"
        }
      },
      "BASE_CURRENCY": {
        "details": "Address 0x0 is reserved for USD as base currency.",
        "return": "Returns the base currency address.",
        "returns": {
          "_0": "Returns the base currency address."
        }
      },
      "BASE_CURRENCY_UNIT": {
        "details": "1 ether for ETH, 1e8 for USD.",
        "return": "Returns the base currency unit.",
        "returns": {
          "_0": "Returns the base currency unit."
        }
      }
    },
    "title": "AaveOracle",
    "version": 1
  },
  "evm": {
    "gasEstimates": {
      "creation": {
        "codeDepositCost": "540600",
        "executionCost": "infinite",
        "totalCost": "infinite"
      },
      "external": {
        "ADDRESSES_PROVIDER()": "infinite",
        "BASE_CURRENCY()": "infinite",
        "BASE_CURRENCY_UNIT()": "infinite",
        "getAssetPrice(address)": "infinite",
        "getAssetsPrices(address[])": "infinite",
        "getFallbackOracle()": "2364",
        "getSourceOfAsset(address)": "2550",
        "setAssetSources(address[],address[])": "infinite",
        "setFallbackOracle(address)": "infinite"
      },
      "internal": {
        "_onlyAssetListingOrPoolAdmins()": "infinite",
        "_setAssetsSources(address[] memory,address[] memory)": "infinite",
        "_setFallbackOracle(address)": "25425"
      }
    }
  },
  "storageLayout": {
    "storage": [
      {
        "astId": 9986,
        "contract": "project/contracts/misc/AaveOracle.sol:AaveOracle",
        "label": "assetsSources",
        "offset": 0,
        "slot": "0",
        "type": "t_mapping(t_address,t_contract(AggregatorInterface)839)"
      },
      {
        "astId": 9989,
        "contract": "project/contracts/misc/AaveOracle.sol:AaveOracle",
        "label": "_fallbackOracle",
        "offset": 0,
        "slot": "1",
        "type": "t_contract(IPriceOracleGetter)7003"
      }
    ],
    "types": {
      "t_address": {
        "encoding": "inplace",
        "label": "address",
        "numberOfBytes": "20"
      },
      "t_contract(AggregatorInterface)839": {
        "encoding": "inplace",
        "label": "contract AggregatorInterface",
        "numberOfBytes": "20"
      },
      "t_contract(IPriceOracleGetter)7003": {
        "encoding": "inplace",
        "label": "contract IPriceOracleGetter",
        "numberOfBytes": "20"
      },
      "t_mapping(t_address,t_contract(AggregatorInterface)839)": {
        "encoding": "mapping",
        "key": "t_address",
        "label": "mapping(address => contract AggregatorInterface)",
        "numberOfBytes": "32",
        "value": "t_contract(AggregatorInterface)839"
      }
    }
  },
  "userdoc": {
    "kind": "user",
    "methods": {
      "ADDRESSES_PROVIDER()": {
        "notice": "Returns the PoolAddressesProvider"
      },
      "BASE_CURRENCY()": {
        "notice": "Returns the base currency address"
      },
      "BASE_CURRENCY_UNIT()": {
        "notice": "Returns the base currency unit"
      },
      "constructor": {
        "notice": "Constructor"
      },
      "getAssetPrice(address)": {
        "notice": "Returns the asset price in the base currency"
      },
      "getAssetsPrices(address[])": {
        "notice": "Returns a list of prices from a list of assets addresses"
      },
      "getFallbackOracle()": {
        "notice": "Returns the address of the fallback oracle"
      },
      "getSourceOfAsset(address)": {
        "notice": "Returns the address of the source for an asset address"
      },
      "setAssetSources(address[],address[])": {
        "notice": "Sets or replaces price sources of assets"
      },
      "setFallbackOracle(address)": {
        "notice": "Sets the fallback oracle"
      }
    },
    "notice": "Contract to get asset prices, manage price sources and update the fallback oracle - Use of Chainlink Aggregators as first source of price - If the returned price by a Chainlink aggregator is <= 0, the call is forwarded to a fallback oracle - Owned by the Aave governance",
    "version": 1
  },
  "argsData": "0x0000000000000000000000002c692169229c5f69071ca557a6fcf4817c758ead00000000000000000000000000000000000000000000000000000000000000c00000000000000000000000000000000000000000000000000000000000000120000000000000000000000000000000000000000000000000000000000000000000000000000000000000000000000000000000000000000000000000000000000000000000000000000000000000000000000000000000000000000005f5e10000000000000000000000000000000000000000000000000000000000000000020000000000000000000000005e39c02496fa6d486155c8569b22a1628fcbd27a000000000000000000000000490f6cc6108eaea67b0a84c8a48b4df1bd13c78a0000000000000000000000000000000000000000000000000000000000000002000000000000000000000000ea32674796b527d2ae7f9f9d38c4b4de63b3ddfe000000000000000000000000308007a07d15a29c180b6ec1778ce71cfd1356ce",
  "transaction": {
    "hash": "0x286fd492c7fa7b2f32465d88f8c6430722896fa284c2ad9f238043865bb75e60",
    "nonce": "0x1cb",
    "origin": "0xe55d6fbfd2da1562187bbc5b874a070a490f410b"
  }
}