{
  "address": "0xdf678fbd8078fb167b8ce63f1f44a900e2bbf3a5",
  "abi": [
    {
      "inputs": [
        {
          "internalType": "contract IPoolAddressesProvider",
          "name": "provider",
          "type": "address"
        }
      ],
      "stateMutability": "nonpayable",
      "type": "constructor"
    },
    {
      "anonymous": false,
      "inputs": [
        {
          "indexed": true,
          "internalType": "bytes32",
          "name": "role",
          "type": "bytes32"
        },
        {
          "indexed": true,
          "internalType": "bytes32",
          "name": "previousAdminRole",
          "type": "bytes32"
        },
        {
          "indexed": true,
          "internalType": "bytes32",
          "name": "newAdminRole",
          "type": "bytes32"
        }
      ],
      "name": "RoleAdminChanged",
      "type": "event"
    },
    {
      "anonymous": false,
      "inputs": [
        {
          "indexed": true,
          "internalType": "bytes32",
          "name": "role",
          "type": "bytes32"
        },
        {
          "indexed": true,
          "internalType": "address",
          "name": "account",
          "type": "address"
        },
        {
          "indexed": true,
          "internalType": "address",
          "name": "sender",
          "type": "address"
        }
      ],
      "name": "RoleGranted",
      "type": "event"
    },
    {
      "anonymous": false,
      "inputs": [
        {
          "indexed": true,
          "internalType": "bytes32",
          "name": "role",
          "type": "bytes32"
        },
        {
          "indexed": true,
          "internalType": "address",
          "name": "account",
          "type": "address"
        },
        {
          "indexed": true,
          "internalType": "address",
          "name": "sender",
          "type": "address"
        }
      ],
      "name": "RoleRevoked",
      "type": "event"
    },
    {
      "inputs": [],
      "name": "ADDRESSES_PROVIDER",
      "outputs": [
        {
          "internalType": "contract IPoolAddressesProvider",
          "name": "",
          "type": "address"
        }
      ],
      "stateMutability": "view",
      "type": "function"
    },
    {
      "inputs": [],
      "name": "ASSET_LISTING_ADMIN_ROLE",
      "outputs": [
        {
          "internalType": "bytes32",
          "name": "",
          "type": "bytes32"
        }
      ],
      "stateMutability": "view",
      "type": "function"
    },
    {
      "inputs": [],
      "name": "BRIDGE_ROLE",
      "outputs": [
        {
          "internalType": "bytes32",
          "name": "",
          "type": "bytes32"
        }
      ],
      "stateMutability": "view",
      "type": "function"
    },
    {
      "inputs": [],
      "name": "DEFAULT_ADMIN_ROLE",
      "outputs": [
        {
          "internalType": "bytes32",
          "name": "",
          "type": "bytes32"
        }
      ],
      "stateMutability": "view",
      "type": "function"
    },
    {
      "inputs": [],
      "name": "EMERGENCY_ADMIN_ROLE",
      "outputs": [
        {
          "internalType": "bytes32",
          "name": "",
          "type": "bytes32"
        }
      ],
      "stateMutability": "view",
      "type": "function"
    },
    {
      "inputs": [],
      "name": "FLASH_BORROWER_ROLE",
      "outputs": [
        {
          "internalType": "bytes32",
          "name": "",
          "type": "bytes32"
        }
      ],
      "stateMutability": "view",
      "type": "function"
    },
    {
      "inputs": [],
      "name": "POOL_ADMIN_ROLE",
      "outputs": [
        {
          "internalType": "bytes32",
          "name": "",
          "type": "bytes32"
        }
      ],
      "stateMutability": "view",
      "type": "function"
    },
    {
      "inputs": [],
      "name": "RISK_ADMIN_ROLE",
      "outputs": [
        {
          "internalType": "bytes32",
          "name": "",
          "type": "bytes32"
        }
      ],
      "stateMutability": "view",
      "type": "function"
    },
    {
      "inputs": [
        {
          "internalType": "address",
          "name": "admin",
          "type": "address"
        }
      ],
      "name": "addAssetListingAdmin",
      "outputs": [],
      "stateMutability": "nonpayable",
      "type": "function"
    },
    {
      "inputs": [
        {
          "internalType": "address",
          "name": "bridge",
          "type": "address"
        }
      ],
      "name": "addBridge",
      "outputs": [],
      "stateMutability": "nonpayable",
      "type": "function"
    },
    {
      "inputs": [
        {
          "internalType": "address",
          "name": "admin",
          "type": "address"
        }
      ],
      "name": "addEmergencyAdmin",
      "outputs": [],
      "stateMutability": "nonpayable",
      "type": "function"
    },
    {
      "inputs": [
        {
          "internalType": "address",
          "name": "borrower",
          "type": "address"
        }
      ],
      "name": "addFlashBorrower",
      "outputs": [],
      "stateMutability": "nonpayable",
      "type": "function"
    },
    {
      "inputs": [
        {
          "internalType": "address",
          "name": "admin",
          "type": "address"
        }
      ],
      "name": "addPoolAdmin",
      "outputs": [],
      "stateMutability": "nonpayable",
      "type": "function"
    },
    {
      "inputs": [
        {
          "internalType": "address",
          "name": "admin",
          "type": "address"
        }
      ],
      "name": "addRiskAdmin",
      "outputs": [],
      "stateMutability": "nonpayable",
      "type": "function"
    },
    {
      "inputs": [
        {
          "internalType": "bytes32",
          "name": "role",
          "type": "bytes32"
        }
      ],
      "name": "getRoleAdmin",
      "outputs": [
        {
          "internalType": "bytes32",
          "name": "",
          "type": "bytes32"
        }
      ],
      "stateMutability": "view",
      "type": "function"
    },
    {
      "inputs": [
        {
          "internalType": "bytes32",
          "name": "role",
          "type": "bytes32"
        },
        {
          "internalType": "address",
          "name": "account",
          "type": "address"
        }
      ],
      "name": "grantRole",
      "outputs": [],
      "stateMutability": "nonpayable",
      "type": "function"
    },
    {
      "inputs": [
        {
          "internalType": "bytes32",
          "name": "role",
          "type": "bytes32"
        },
        {
          "internalType": "address",
          "name": "account",
          "type": "address"
        }
      ],
      "name": "hasRole",
      "outputs": [
        {
          "internalType": "bool",
          "name": "",
          "type": "bool"
        }
      ],
      "stateMutability": "view",
      "type": "function"
    },
    {
      "inputs": [
        {
          "internalType": "address",
          "name": "admin",
          "type": "address"
        }
      ],
      "name": "isAssetListingAdmin",
      "outputs": [
        {
          "internalType": "bool",
          "name": "",
          "type": "bool"
        }
      ],
      "stateMutability": "view",
      "type": "function"
    },
    {
      "inputs": [
        {
          "internalType": "address",
          "name": "bridge",
          "type": "address"
        }
      ],
      "name": "isBridge",
      "outputs": [
        {
          "internalType": "bool",
          "name": "",
          "type": "bool"
        }
      ],
      "stateMutability": "view",
      "type": "function"
    },
    {
      "inputs": [
        {
          "internalType": "address",
          "name": "admin",
          "type": "address"
        }
      ],
      "name": "isEmergencyAdmin",
      "outputs": [
        {
          "internalType": "bool",
          "name": "",
          "type": "bool"
        }
      ],
      "stateMutability": "view",
      "type": "function"
    },
    {
      "inputs": [
        {
          "internalType": "address",
          "name": "borrower",
          "type": "address"
        }
      ],
      "name": "isFlashBorrower",
      "outputs": [
        {
          "internalType": "bool",
          "name": "",
          "type": "bool"
        }
      ],
      "stateMutability": "view",
      "type": "function"
    },
    {
      "inputs": [
        {
          "internalType": "address",
          "name": "admin",
          "type": "address"
        }
      ],
      "name": "isPoolAdmin",
      "outputs": [
        {
          "internalType": "bool",
          "name": "",
          "type": "bool"
        }
      ],
      "stateMutability": "view",
      "type": "function"
    },
    {
      "inputs": [
        {
          "internalType": "address",
          "name": "admin",
          "type": "address"
        }
      ],
      "name": "isRiskAdmin",
      "outputs": [
        {
          "internalType": "bool",
          "name": "",
          "type": "bool"
        }
      ],
      "stateMutability": "view",
      "type": "function"
    },
    {
      "inputs": [
        {
          "internalType": "address",
          "name": "admin",
          "type": "address"
        }
      ],
      "name": "removeAssetListingAdmin",
      "outputs": [],
      "stateMutability": "nonpayable",
      "type": "function"
    },
    {
      "inputs": [
        {
          "internalType": "address",
          "name": "bridge",
          "type": "address"
        }
      ],
      "name": "removeBridge",
      "outputs": [],
      "stateMutability": "nonpayable",
      "type": "function"
    },
    {
      "inputs": [
        {
          "internalType": "address",
          "name": "admin",
          "type": "address"
        }
      ],
      "name": "removeEmergencyAdmin",
      "outputs": [],
      "stateMutability": "nonpayable",
      "type": "function"
    },
    {
      "inputs": [
        {
          "internalType": "address",
          "name": "borrower",
          "type": "address"
        }
      ],
      "name": "removeFlashBorrower",
      "outputs": [],
      "stateMutability": "nonpayable",
      "type": "function"
    },
    {
      "inputs": [
        {
          "internalType": "address",
          "name": "admin",
          "type": "address"
        }
      ],
      "name": "removePoolAdmin",
      "outputs": [],
      "stateMutability": "nonpayable",
      "type": "function"
    },
    {
      "inputs": [
        {
          "internalType": "address",
          "name": "admin",
          "type": "address"
        }
      ],
      "name": "removeRiskAdmin",
      "outputs": [],
      "stateMutability": "nonpayable",
      "type": "function"
    },
    {
      "inputs": [
        {
          "internalType": "bytes32",
          "name": "role",
          "type": "bytes32"
        },
        {
          "internalType": "address",
          "name": "account",
          "type": "address"
        }
      ],
      "name": "renounceRole",
      "outputs": [],
      "stateMutability": "nonpayable",
      "type": "function"
    },
    {
      "inputs": [
        {
          "internalType": "bytes32",
          "name": "role",
          "type": "bytes32"
        },
        {
          "internalType": "address",
          "name": "account",
          "type": "address"
        }
      ],
      "name": "revokeRole",
      "outputs": [],
      "stateMutability": "nonpayable",
      "type": "function"
    },
    {
      "inputs": [
        {
          "internalType": "bytes32",
          "name": "role",
          "type": "bytes32"
        },
        {
          "internalType": "bytes32",
          "name": "adminRole",
          "type": "bytes32"
        }
      ],
      "name": "setRoleAdmin",
      "outputs": [],
      "stateMutability": "nonpayable",
      "type": "function"
    },
    {
      "inputs": [
        {
          "internalType": "bytes4",
          "name": "interfaceId",
          "type": "bytes4"
        }
      ],
      "name": "supportsInterface",
      "outputs": [
        {
          "internalType": "bool",
          "name": "",
          "type": "bool"
        }
      ],
      "stateMutability": "view",
      "type": "function"
    }
  ],
  "contractName": "ACLManager",
  "sourceName": "contracts/protocol/configuration/ACLManager.sol",
  "bytecode": "0x60a060405234801562000010575f80fd5b5060405162001034380380620010348339810160408190526200003391620001db565b806001600160a01b03166080816001600160a01b0316815250505f816001600160a01b0316630e67178c6040518163ffffffff1660e01b8152600401602060405180830381865afa1580156200008b573d5f803e3d5ffd5b505050506040513d601f19601f82011682018060405250810190620000b19190620001db565b604080518082019091526002815261373560f01b60208201529091506001600160a01b038216620001005760405162461bcd60e51b8152600401620000f7919062000200565b60405180910390fd5b506200010d5f8262000115565b50506200024d565b62000121828262000125565b5050565b5f828152602081815260408083206001600160a01b038516845290915290205460ff1662000121575f828152602081815260408083206001600160a01b03851684529091529020805460ff191660011790556200017f3390565b6001600160a01b0316816001600160a01b0316837f2f8788117e7eff1d82e926ec794901d17c78024a50270940304540a733656f0d60405160405180910390a45050565b6001600160a01b0381168114620001d8575f80fd5b50565b5f60208284031215620001ec575f80fd5b8151620001f981620001c3565b9392505050565b5f6020808352835180828501525f5b818110156200022d578581018301518582016040015282016200020f565b505f604082860101526040601f19601f8301168501019250505092915050565b608051610dce620002665f395f6102380152610dce5ff3fe608060405234801561000f575f80fd5b50600436106101f2575f3560e01c8063674b5e4d116101145780639a2b96f7116100a9578063b5bfddea11610079578063b5bfddea14610462578063b8f6dba714610476578063d547741f1461048a578063f83695cb1461049d578063fa50f297146104b0575f80fd5b80639a2b96f7146104225780639ac9d80b14610435578063a217fddf14610448578063a21bce151461044f575f80fd5b80637a9a93f4116100e45780637a9a93f4146103d65780637be53ca1146103e957806391d14854146103fc5780639712fdf81461040f575f80fd5b8063674b5e4d146103885780636e76fc8f1461039b578063726600ce146103af57806378bb0a43146103c2575f80fd5b80632500f2b61161018a5780633c5a08e51161015a5780633c5a08e51461033a5780634f16b4251461034d5780635577b7a9146103615780635b9a94e414610375575f80fd5b80632500f2b6146102ee578063253cf980146103015780632f2ff15d1461031457806336568abe14610327575f80fd5b8063179efb09116101c5578063179efb09146102855780631e4e00911461029857806322650caf146102ab578063248a9ca3146102be575f80fd5b806301ffc9a7146101f657806304df017d1461021e5780630542975c1461023357806313ee32e014610272575b5f80fd5b610209610204366004610ad9565b6104c3565b60405190151581526020015b60405180910390f35b61023161022c366004610b1b565b6104f9565b005b61025a7f000000000000000000000000000000000000000000000000000000000000000081565b6040516001600160a01b039091168152602001610215565b610209610280366004610b1b565b610513565b610231610293366004610b1b565b61052b565b6102316102a6366004610b34565b610542565b6102316102b9366004610b1b565b61055c565b6102e06102cc366004610b54565b5f9081526020819052604090206001015490565b604051908152602001610215565b6102096102fc366004610b1b565b610573565b61023161030f366004610b1b565b61058b565b610231610322366004610b6b565b6105a2565b610231610335366004610b6b565b6105c7565b610231610348366004610b1b565b61064a565b6102e05f80516020610cf983398151915281565b6102e05f80516020610d7983398151915281565b610231610383366004610b1b565b610661565b610209610396366004610b1b565b610678565b6102e05f80516020610d5983398151915281565b6102096103bd366004610b1b565b610690565b6102e05f80516020610d1983398151915281565b6102316103e4366004610b1b565b6106a8565b6102096103f7366004610b1b565b6106bf565b61020961040a366004610b6b565b6106d3565b61023161041d366004610b1b565b6106fb565b610231610430366004610b1b565b610712565b610231610443366004610b1b565b610729565b6102e05f81565b61023161045d366004610b1b565b610740565b6102e05f80516020610d3983398151915281565b6102e05f80516020610cd983398151915281565b610231610498366004610b6b565b610753565b6102316104ab366004610b1b565b610778565b6102096104be366004610b1b565b61078f565b5f6001600160e01b03198216637965db0b60e01b14806104f357506301ffc9a760e01b6001600160e01b03198316145b92915050565b6105105f80516020610d3983398151915282610753565b50565b5f6104f35f80516020610d19833981519152836106d3565b6105105f80516020610d59833981519152826105a2565b5f61054d81336107a7565b610557838361080b565b505050565b6105105f80516020610cd9833981519152826105a2565b5f6104f35f80516020610d59833981519152836106d3565b6105105f80516020610d7983398151915282610753565b5f828152602081905260409020600101546105bd81336107a7565b6105578383610855565b6001600160a01b038116331461063c5760405162461bcd60e51b815260206004820152602f60248201527f416363657373436f6e74726f6c3a2063616e206f6e6c792072656e6f756e636560448201526e103937b632b9903337b91039b2b63360891b60648201526084015b60405180910390fd5b61064682826108d8565b5050565b6105105f80516020610cf983398151915282610753565b6105105f80516020610cf9833981519152826105a2565b5f6104f35f80516020610cf9833981519152836106d3565b5f6104f35f80516020610d39833981519152836106d3565b6105105f80516020610d5983398151915282610753565b5f6104f35f80516020610cd9833981519152835b5f918252602082815260408084206001600160a01b0393909316845291905290205460ff1690565b6105105f80516020610d39833981519152826105a2565b6105105f80516020610d19833981519152826105a2565b6105105f80516020610d79833981519152826105a2565b6105105f80516020610d19833981519152825b5f8281526020819052604090206001015461076e81336107a7565b61055783836108d8565b6105105f80516020610cd983398151915282610753565b5f6104f35f80516020610d79833981519152836106d3565b6107b182826106d3565b610646576107c9816001600160a01b0316601461093c565b6107d483602061093c565b6040516020016107e5929190610bb7565b60408051601f198184030181529082905262461bcd60e51b825261063391600401610c2b565b5f82815260208190526040808220600101805490849055905190918391839186917fbd79b86ffe0ab8e8776151514217cd7cacd52c909f66475c3af44e129f0b00ff9190a4505050565b61085f82826106d3565b610646575f828152602081815260408083206001600160a01b03851684529091529020805460ff191660011790556108943390565b6001600160a01b0316816001600160a01b0316837f2f8788117e7eff1d82e926ec794901d17c78024a50270940304540a733656f0d60405160405180910390a45050565b6108e282826106d3565b15610646575f828152602081815260408083206001600160a01b0385168085529252808320805460ff1916905551339285917ff6391f5c32d9c69d2a47ea670b442974b53935d1edc7fd64eb21e047a839171b9190a45050565b60605f61094a836002610c71565b610955906002610c88565b67ffffffffffffffff81111561096d5761096d610c9b565b6040519080825280601f01601f191660200182016040528015610997576020820181803683370190505b509050600360fc1b815f815181106109b1576109b1610caf565b60200101906001600160f81b03191690815f1a905350600f60fb1b816001815181106109df576109df610caf565b60200101906001600160f81b03191690815f1a9053505f610a01846002610c71565b610a0c906001610c88565b90505b6001811115610a83576f181899199a1a9b1b9c1cb0b131b232b360811b85600f1660108110610a4057610a40610caf565b1a60f81b828281518110610a5657610a56610caf565b60200101906001600160f81b03191690815f1a90535060049490941c93610a7c81610cc3565b9050610a0f565b508315610ad25760405162461bcd60e51b815260206004820181905260248201527f537472696e67733a20686578206c656e67746820696e73756666696369656e746044820152606401610633565b9392505050565b5f60208284031215610ae9575f80fd5b81356001600160e01b031981168114610ad2575f80fd5b80356001600160a01b0381168114610b16575f80fd5b919050565b5f60208284031215610b2b575f80fd5b610ad282610b00565b5f8060408385031215610b45575f80fd5b50508035926020909101359150565b5f60208284031215610b64575f80fd5b5035919050565b5f8060408385031215610b7c575f80fd5b82359150610b8c60208401610b00565b90509250929050565b5f5b83811015610baf578181015183820152602001610b97565b50505f910152565b7f416363657373436f6e74726f6c3a206163636f756e742000000000000000000081525f8351610bee816017850160208801610b95565b7001034b99036b4b9b9b4b733903937b6329607d1b6017918401918201528351610c1f816028840160208801610b95565b01602801949350505050565b602081525f8251806020840152610c49816040850160208701610b95565b601f01601f19169190910160400192915050565b634e487b7160e01b5f52601160045260245ffd5b80820281158282048414176104f3576104f3610c5d565b808201808211156104f3576104f3610c5d565b634e487b7160e01b5f52604160045260245ffd5b634e487b7160e01b5f52603260045260245ffd5b5f81610cd157610cd1610c5d565b505f19019056fe12ad05bde78c5ab75238ce885307f96ecd482bb402ef831f99e7018a0f169b7b8aa855a911518ecfbe5bc3088c8f3dda7badf130faaf8ace33fdc33828e1816719c860a63258efbd0ecb7d55c626237bf5c2044c26c073390b74f0c13c85743308fb31c3e81624356c3314088aa971b73bcc82d22bc3e3b184b4593077ae32785c91514091af31f62f596a314af7d5be40146b2f2355969392f055e12e0982fb939b8dfb57ecef2aea54a93a15e86768b9d4089f1ba61c245e6ec980695f4ca4a264697066735822122081fcfb096b8081efa9bab0726bfbabc6c59677886a6b7d738fbe8acf9f7e385c64736f6c63430008140033",
  "linkReferences": {},
  "deployedLinkReferences": {},
  "immutableReferences": {
    "14750": [
      {
        "length": 32,
        "start": 568
      }
    ]
  },
  "inputSourceName": "project/contracts/protocol/configuration/ACLManager.sol",
  "devdoc": {
    "author": "Aave",
    "events": {
      "RoleAdminChanged(bytes32,bytes32,bytes32)": {
        "details": "Emitted when `newAdminRole` is set as ``role``'s admin role, replacing `previousAdminRole` `DEFAULT_ADMIN_ROLE` is the starting admin for all roles, despite {RoleAdminChanged} not being emitted signaling this. _Available since v3.1._"
      },
      "RoleGranted(bytes32,address,address)": {
        "details": "Emitted when `account` is granted `role`. `sender` is the account that originated the contract call, an admin role bearer except when using {AccessControl-_setupRole}."
      },
      "RoleRevoked(bytes32,address,address)": {
        "details": "Emitted when `account` is revoked `role`. `sender` is the account that originated the contract call:   - if using `revokeRole`, it is the admin role bearer   - if using `renounceRole`, it is the role bearer (i.e. `account`)"
      }
    },
    "kind": "dev",
    "methods": {
      "addAssetListingAdmin(address)": {
        "params": {
          "admin": "The address of the new admin"
        }
      },
      "addBridge(address)": {
        "params": {
          "bridge": "The address of the new Bridge"
        }
      },
      "addEmergencyAdmin(address)": {
        "params": {
          "admin": "The address of the new admin"
        }
      },
      "addFlashBorrower(address)": {
        "params": {
          "borrower": "The address of the new FlashBorrower"
        }
      },
      "addPoolAdmin(address)": {
        "params": {
          "admin": "The address of the new admin"
        }
      },
      "addRiskAdmin(address)": {
        "params": {
          "admin": "The address of the new admin"
        }
      },
      "constructor": {
        "details": "ConstructorThe ACL admin should be initialized at the addressesProvider beforehand",
        "params": {
          "provider": "The address of the PoolAddressesProvider"
        }
      },
      "getRoleAdmin(bytes32)": {
        "details": "Returns the admin role that controls `role`. See {grantRole} and {revokeRole}. To change a role's admin, use {_setRoleAdmin}."
      },
      "grantRole(bytes32,address)": {
        "details": "Grants `role` to `account`. If `account` had not been already granted `role`, emits a {RoleGranted} event. Requirements: - the caller must have ``role``'s admin role."
      },
      "hasRole(bytes32,address)": {
        "details": "Returns `true` if `account` has been granted `role`."
      },
      "isAssetListingAdmin(address)": {
        "params": {
          "admin": "The address to check"
        },
        "returns": {
          "_0": "True if the given address is AssetListingAdmin, false otherwise"
        }
      },
      "isBridge(address)": {
        "params": {
          "bridge": "The address to check"
        },
        "returns": {
          "_0": "True if the given address is Bridge, false otherwise"
        }
      },
      "isEmergencyAdmin(address)": {
        "params": {
          "admin": "The address to check"
        },
        "returns": {
          "_0": "True if the given address is EmergencyAdmin, false otherwise"
        }
      },
      "isFlashBorrower(address)": {
        "params": {
          "borrower": "The address to check"
        },
        "returns": {
          "_0": "True if the given address is FlashBorrower, false otherwise"
        }
      },
      "isPoolAdmin(address)": {
        "params": {
          "admin": "The address to check"
        },
        "returns": {
          "_0": "True if the given address is PoolAdmin, false otherwise"
        }
      },
      "isRiskAdmin(address)": {
        "params": {
          "admin": "The address to check"
        },
        "returns": {
          "_0": "True if the given address is RiskAdmin, false otherwise"
        }
      },
      "removeAssetListingAdmin(address)": {
        "params": {
          "admin": "The address of the admin to remove"
        }
      },
      "removeBridge(address)": {
        "params": {
          "bridge": "The address of the bridge to remove"
        }
      },
      "removeEmergencyAdmin(address)": {
        "params": {
          "admin": "The address of the admin to remove"
        }
      },
      "removeFlashBorrower(address)": {
        "params": {
          "borrower": "The address of the FlashBorrower to remove"
        }
      },
      "removePoolAdmin(address)": {
        "params": {
          "admin": "The address of the admin to remove"
        }
      },
      "removeRiskAdmin(address)": {
        "params": {
          "admin": "The address of the admin to remove"
        }
      },
      "renounceRole(bytes32,address)": {
        "details": "Revokes `role` from the calling account. Roles are often managed via {grantRole} and {revokeRole}: this function's purpose is to provide a mechanism for accounts to lose their privileges if they are compromised (such as when a trusted device is misplaced). If the calling account had been granted `role`, emits a {RoleRevoked} event. Requirements: - the caller must be `account`."
      },
      "revokeRole(bytes32,address)": {
        "details": "Revokes `role` from `account`. If `account` had been granted `role`, emits a {RoleRevoked} event. Requirements: - the caller must have ``role``'s admin role."
      },
      "setRoleAdmin(bytes32,bytes32)": {
        "details": "By default the admin role for all roles is `DEFAULT_ADMIN_ROLE`.",
        "params": {
          "adminRole": "The admin role",
          "role": "The role to be managed by the admin role"
        }
      },
      "supportsInterface(bytes4)": {
        "details": "See {IERC165-supportsInterface}."
      }
    },
    "stateVariables": {
      "ADDRESSES_PROVIDER": {
        "return": "The address of the PoolAddressesProvider",
        "returns": {
          "_0": "The address of the PoolAddressesProvider"
        }
      },
      "ASSET_LISTING_ADMIN_ROLE": {
        "return": "The id of the AssetListingAdmin role",
        "returns": {
          "_0": "The id of the AssetListingAdmin role"
        }
      },
      "BRIDGE_ROLE": {
        "return": "The id of the Bridge role",
        "returns": {
          "_0": "The id of the Bridge role"
        }
      },
      "EMERGENCY_ADMIN_ROLE": {
        "return": "The id of the EmergencyAdmin role",
        "returns": {
          "_0": "The id of the EmergencyAdmin role"
        }
      },
      "FLASH_BORROWER_ROLE": {
        "return": "The id of the FlashBorrower role",
        "returns": {
          "_0": "The id of the FlashBorrower role"
        }
      },
      "POOL_ADMIN_ROLE": {
        "return": "The id of the PoolAdmin role",
        "returns": {
          "_0": "The id of the PoolAdmin role"
        }
      },
      "RISK_ADMIN_ROLE": {
        "return": "The id of the RiskAdmin role",
        "returns": {
          "_0": "The id of the RiskAdmin role"
        }
      }
    },
    "title": "ACLManager",
    "version": 1
  },
  "evm": {
    "gasEstimates": {
      "creation": {
        "codeDepositCost": "706800",
        "executionCost": "infinite",
        "totalCost": "infinite"
      },
      "external": {
        "ADDRESSES_PROVIDER()": "infinite",
        "ASSET_LISTING_ADMIN_ROLE()": "infinite",
        "BRIDGE_ROLE()": "infinite",
        "DEFAULT_ADMIN_ROLE()": "282",
        "EMERGENCY_ADMIN_ROLE()": "infinite",
        "FLASH_BORROWER_ROLE()": "infinite",
        "POOL_ADMIN_ROLE()": "infinite",
        "RISK_ADMIN_ROLE()": "infinite",
        "addAssetListingAdmin(address)": "infinite",
        "addBridge(address)": "infinite",
        "addEmergencyAdmin(address)": "infinite",
        "addFlashBorrower(address)": "infinite",
        "addPoolAdmin(address)": "infinite",
        "addRiskAdmin(address)": "infinite",
        "getRoleAdmin(bytes32)": "2556",
        "grantRole(bytes32,address)": "infinite",
        "hasRole(bytes32,address)": "2737",
        "isAssetListingAdmin(address)": "infinite",
        "isBridge(address)": "infinite",
        "isEmergencyAdmin(address)": "infinite",
        "isFlashBorrower(address)": "infinite",
        "isPoolAdmin(address)": "infinite",
        "isRiskAdmin(address)": "infinite",
        "removeAssetListingAdmin(address)": "infinite",
        "removeBridge(address)": "infinite",
        "removeEmergencyAdmin(address)": "infinite",
        "removeFlashBorrower(address)": "infinite",
        "removePoolAdmin(address)": "infinite",
        "removeRiskAdmin(address)": "infinite",
        "renounceRole(bytes32,address)": "29103",
        "revokeRole(bytes32,address)": "infinite",
        "setRoleAdmin(bytes32,bytes32)": "infinite",
        "supportsInterface(bytes4)": "470"
      }
    }
  },
  "storageLayout": {
    "storage": [
      {
        "astId": 935,
        "contract": "project/contracts/protocol/configuration/ACLManager.sol:ACLManager",
        "label": "_roles",
        "offset": 0,
        "slot": "0",
        "type": "t_mapping(t_bytes32,t_struct(RoleData)930_storage)"
      }
    ],
    "types": {
      "t_address": {
        "encoding": "inplace",
        "label": "address",
        "numberOfBytes": "20"
      },
      "t_bool": {
        "encoding": "inplace",
        "label": "bool",
        "numberOfBytes": "1"
      },
      "t_bytes32": {
        "encoding": "inplace",
        "label": "bytes32",
        "numberOfBytes": "32"
      },
      "t_mapping(t_address,t_bool)": {
        "encoding": "mapping",
        "key": "t_address",
        "label": "mapping(address => bool)",
        "numberOfBytes": "32",
        "value": "t_bool"
      },
      "t_mapping(t_bytes32,t_struct(RoleData)930_storage)": {
        "encoding": "mapping",
        "key": "t_bytes32",
        "label": "mapping(bytes32 => struct AccessControl.RoleData)",
        "numberOfBytes": "32",
        "value": "t_struct(RoleData)930_storage"
      },
      "t_struct(RoleData)930_storage": {
        "encoding": "inplace",
        "label": "struct AccessControl.RoleData",
        "members": [
          {
            "astId": 927,
            "contract": "project/contracts/protocol/configuration/ACLManager.sol:ACLManager",
            "label": "members",
            "offset": 0,
            "slot": "0",
            "type": "t_mapping(t_address,t_bool)"
          },
          {
            "astId": 929,
            "contract": "project/contracts/protocol/configuration/ACLManager.sol:ACLManager",
            "label": "adminRole",
            "offset": 0,
            "slot": "1",
            "type": "t_bytes32"
          }
        ],
        "numberOfBytes": "64"
      }
    }
  },
  "userdoc": {
    "kind": "user",
    "methods": {
      "ADDRESSES_PROVIDER()": {
        "notice": "Returns the contract address of the PoolAddressesProvider"
      },
      "ASSET_LISTING_ADMIN_ROLE()": {
        "notice": "Returns the identifier of the AssetListingAdmin role"
      },
      "BRIDGE_ROLE()": {
        "notice": "Returns the identifier of the Bridge role"
      },
      "EMERGENCY_ADMIN_ROLE()": {
        "notice": "Returns the identifier of the EmergencyAdmin role"
      },
      "FLASH_BORROWER_ROLE()": {
        "notice": "Returns the identifier of the FlashBorrower role"
      },
      "POOL_ADMIN_ROLE()": {
        "notice": "Returns the identifier of the PoolAdmin role"
      },
      "RISK_ADMIN_ROLE()": {
        "notice": "Returns the identifier of the RiskAdmin role"
      },
      "addAssetListingAdmin(address)": {
        "notice": "Adds a new admin as AssetListingAdmin"
      },
      "addBridge(address)": {
        "notice": "Adds a new address as Bridge"
      },
      "addEmergencyAdmin(address)": {
        "notice": "Adds a new admin as EmergencyAdmin"
      },
      "addFlashBorrower(address)": {
        "notice": "Adds a new address as FlashBorrower"
      },
      "addPoolAdmin(address)": {
        "notice": "Adds a new admin as PoolAdmin"
      },
      "addRiskAdmin(address)": {
        "notice": "Adds a new admin as RiskAdmin"
      },
      "isAssetListingAdmin(address)": {
        "notice": "Returns true if the address is AssetListingAdmin, false otherwise"
      },
      "isBridge(address)": {
        "notice": "Returns true if the address is Bridge, false otherwise"
      },
      "isEmergencyAdmin(address)": {
        "notice": "Returns true if the address is EmergencyAdmin, false otherwise"
      },
      "isFlashBorrower(address)": {
        "notice": "Returns true if the address is FlashBorrower, false otherwise"
      },
      "isPoolAdmin(address)": {
        "notice": "Returns true if the address is PoolAdmin, false otherwise"
      },
      "isRiskAdmin(address)": {
        "notice": "Returns true if the address is RiskAdmin, false otherwise"
      },
      "removeAssetListingAdmin(address)": {
        "notice": "Removes an admin as AssetListingAdmin"
      },
      "removeBridge(address)": {
        "notice": "Removes an address as Bridge"
      },
      "removeEmergencyAdmin(address)": {
        "notice": "Removes an admin as EmergencyAdmin"
      },
      "removeFlashBorrower(address)": {
        "notice": "Removes an address as FlashBorrower"
      },
      "removePoolAdmin(address)": {
        "notice": "Removes an admin as PoolAdmin"
      },
      "removeRiskAdmin(address)": {
        "notice": "Removes an admin as RiskAdmin"
      },
      "setRoleAdmin(bytes32,bytes32)": {
        "notice": "Set the role as admin of a specific role."
      }
    },
    "notice": "Access Control List Manager. Main registry of system roles and permissions.",
    "version": 1
  },
  "argsData": "0x0000000000000000000000002c692169229c5f69071ca557a6fcf4817c758ead",
  "transaction": {
    "hash": "0x334e3d2555a8536beb8e22cb53d2bbbed7d2d1b7257784023b6135d7e3b6fbba",
    "nonce": "0x1aa",
    "origin": "0xe55d6fbfd2da1562187bbc5b874a070a490f410b"
  }
}