{
  "address": "0x95bc50f0087c1cea1576d1e2e1554ea28e1b2767",
  "abi": [
    {
      "inputs": [
        {
          "internalType": "int256",
          "name": "initialAnswer",
          "type": "int256"
        }
      ],
      "stateMutability": "nonpayable",
      "type": "constructor"
    },
    {
      "anonymous": false,
      "inputs": [
        {
          "indexed": true,
          "internalType": "int256",
          "name": "current",
          "type": "int256"
        },
        {
          "indexed": true,
          "internalType": "uint256",
          "name": "roundId",
          "type": "uint256"
        },
        {
          "indexed": false,
          "internalType": "uint256",
          "name": "updatedAt",
          "type": "uint256"
        }
      ],
      "name": "AnswerUpdated",
      "type": "event"
    },
    {
      "inputs": [],
      "name": "decimals",
      "outputs": [
        {
          "internalType": "uint8",
          "name": "",
          "type": "uint8"
        }
      ],
      "stateMutability": "pure",
      "type": "function"
    },
    {
      "inputs": [],
      "name": "getTokenType",
      "outputs": [
        {
          "internalType": "uint256",
          "name": "",
          "type": "uint256"
        }
      ],
      "stateMutability": "pure",
      "type": "function"
    },
    {
      "inputs": [],
      "name": "latestAnswer",
      "outputs": [
        {
          "internalType": "int256",
          "name": "",
          "type": "int256"
        }
      ],
      "stateMutability": "view",
      "type": "function"
    },
    {
      "inputs": [
        {
          "internalType": "int256",
          "name": "newAnswer",
          "type": "int256"
        }
      ],
      "name": "setLatestAnswer",
      "outputs": [],
      "stateMutability": "nonpayable",
      "type": "function"
    }
  ],
  "contractName": "MockAggregator",
  "sourceName": "contracts/mocks/oracle/CLAggregators/MockAggregator.sol",
  "bytecode": "0x608060405234801561000f575f80fd5b5060405161019c38038061019c83398101604081905261002e9161006d565b5f81815560405142815282907f0559884fd3a460db3073b7fc896cc77986f16e378210ded43186175bf646fc5f9060200160405180910390a350610084565b5f6020828403121561007d575f80fd5b5051919050565b61010b806100915f395ff3fe6080604052348015600e575f80fd5b50600436106044575f3560e01c806304ea97b0146048578063313ce56714605957806350d25bcd14606d578063fcab181914607d575b5f80fd5b6057605336600460bf565b6083565b005b604051600881526020015b60405180910390f35b5f545b6040519081526020016064565b60016070565b5f81815560405142815282907f0559884fd3a460db3073b7fc896cc77986f16e378210ded43186175bf646fc5f9060200160405180910390a350565b5f6020828403121560ce575f80fd5b503591905056fea26469706673582212207edfd521edeeef9b40efb3ed37240a62ff0c0e95addfc639baf6bc336f8d447564736f6c63430008140033",
  "linkReferences": {},
  "deployedLinkReferences": {},
  "immutableReferences": {},
  "inputSourceName": "project/contracts/mocks/oracle/CLAggregators/MockAggregator.sol",
  "devdoc": {
    "kind": "dev",
    "methods": {},
    "version": 1
  },
  "evm": {
    "gasEstimates": {
      "creation": {
        "codeDepositCost": "53400",
        "executionCost": "infinite",
        "totalCost": "infinite"
      },
      "external": {
        "decimals()": "165",
        "getTokenType()": "235",
        "latestAnswer()": "2301",
        "setLatestAnswer(int256)": "24119"
      }
    }
  },
  "storageLayout": {
    "storage": [
      {
        "astId": 13217,
        "contract": "project/contracts/mocks/oracle/CLAggregators/MockAggregator.sol:MockAggregator",
        "label": "_latestAnswer",
        "offset": 0,
        "slot": "0",
        "type": "t_int256"
      }
    ],
    "types": {
      "t_int256": {
        "encoding": "inplace",
        "label": "int256",
        "numberOfBytes": "32"
      }
    }
  },
  "userdoc": {
    "kind": "user",
    "methods": {},
    "version": 1
  },
  "argsData": "0x0000000000000000000000000000000000000000000000000000000005f5e100",
  "transaction": {
    "hash": "0x4b0a7b298017d8f64e41129c67fa3d2cc631ce95467533ad8f26fbb8713bb900",
    "nonce": "0x1fa",
    "origin": "0xe55d6fbfd2da1562187bbc5b874a070a490f410b"
  }
}