{
  "address": "0x6c782ca9ba7d0afe38cfd8a26fa940de0501a89a",
  "abi": [
    {
      "inputs": [
        {
          "internalType": "string",
          "name": "marketId",
          "type": "string"
        },
        {
          "internalType": "address",
          "name": "owner",
          "type": "address"
        }
      ],
      "stateMutability": "nonpayable",
      "type": "constructor"
    },
    {
      "anonymous": false,
      "inputs": [
        {
          "indexed": true,
          "internalType": "address",
          "name": "oldAddress",
          "type": "address"
        },
        {
          "indexed": true,
          "internalType": "address",
          "name": "newAddress",
          "type": "address"
        }
      ],
      "name": "ACLAdminUpdated",
      "type": "event"
    },
    {
      "anonymous": false,
      "inputs": [
        {
          "indexed": true,
          "internalType": "address",
          "name": "oldAddress",
          "type": "address"
        },
        {
          "indexed": true,
          "internalType": "address",
          "name": "newAddress",
          "type": "address"
        }
      ],
      "name": "ACLManagerUpdated",
      "type": "event"
    },
    {
      "anonymous": false,
      "inputs": [
        {
          "indexed": true,
          "internalType": "bytes32",
          "name": "id",
          "type": "bytes32"
        },
        {
          "indexed": true,
          "internalType": "address",
          "name": "oldAddress",
          "type": "address"
        },
        {
          "indexed": true,
          "internalType": "address",
          "name": "newAddress",
          "type": "address"
        }
      ],
      "name": "AddressSet",
      "type": "event"
    },
    {
      "anonymous": false,
      "inputs": [
        {
          "indexed": true,
          "internalType": "bytes32",
          "name": "id",
          "type": "bytes32"
        },
        {
          "indexed": true,
          "internalType": "address",
          "name": "proxyAddress",
          "type": "address"
        },
        {
          "indexed": false,
          "internalType": "address",
          "name": "oldImplementationAddress",
          "type": "address"
        },
        {
          "indexed": true,
          "internalType": "address",
          "name": "newImplementationAddress",
          "type": "address"
        }
      ],
      "name": "AddressSetAsProxy",
      "type": "event"
    },
    {
      "anonymous": false,
      "inputs": [
        {
          "indexed": true,
          "internalType": "string",
          "name": "oldMarketId",
          "type": "string"
        },
        {
          "indexed": true,
          "internalType": "string",
          "name": "newMarketId",
          "type": "string"
        }
      ],
      "name": "MarketIdSet",
      "type": "event"
    },
    {
      "anonymous": false,
      "inputs": [
        {
          "indexed": true,
          "internalType": "address",
          "name": "previousOwner",
          "type": "address"
        },
        {
          "indexed": true,
          "internalType": "address",
          "name": "newOwner",
          "type": "address"
        }
      ],
      "name": "OwnershipTransferred",
      "type": "event"
    },
    {
      "anonymous": false,
      "inputs": [
        {
          "indexed": true,
          "internalType": "address",
          "name": "oldAddress",
          "type": "address"
        },
        {
          "indexed": true,
          "internalType": "address",
          "name": "newAddress",
          "type": "address"
        }
      ],
      "name": "PoolConfiguratorUpdated",
      "type": "event"
    },
    {
      "anonymous": false,
      "inputs": [
        {
          "indexed": true,
          "internalType": "address",
          "name": "oldAddress",
          "type": "address"
        },
        {
          "indexed": true,
          "internalType": "address",
          "name": "newAddress",
          "type": "address"
        }
      ],
      "name": "PoolDataProviderUpdated",
      "type": "event"
    },
    {
      "anonymous": false,
      "inputs": [
        {
          "indexed": true,
          "internalType": "address",
          "name": "oldAddress",
          "type": "address"
        },
        {
          "indexed": true,
          "internalType": "address",
          "name": "newAddress",
          "type": "address"
        }
      ],
      "name": "PoolUpdated",
      "type": "event"
    },
    {
      "anonymous": false,
      "inputs": [
        {
          "indexed": true,
          "internalType": "address",
          "name": "oldAddress",
          "type": "address"
        },
        {
          "indexed": true,
          "internalType": "address",
          "name": "newAddress",
          "type": "address"
        }
      ],
      "name": "PriceOracleSentinelUpdated",
      "type": "event"
    },
    {
      "anonymous": false,
      "inputs": [
        {
          "indexed": true,
          "internalType": "address",
          "name": "oldAddress",
          "type": "address"
        },
        {
          "indexed": true,
          "internalType": "address",
          "name": "newAddress",
          "type": "address"
        }
      ],
      "name": "PriceOracleUpdated",
      "type": "event"
    },
    {
      "anonymous": false,
      "inputs": [
        {
          "indexed": true,
          "internalType": "bytes32",
          "name": "id",
          "type": "bytes32"
        },
        {
          "indexed": true,
          "internalType": "address",
          "name": "proxyAddress",
          "type": "address"
        },
        {
          "indexed": true,
          "internalType": "address",
          "name": "implementationAddress",
          "type": "address"
        }
      ],
      "name": "ProxyCreated",
      "type": "event"
    },
    {
      "inputs": [],
      "name": "getACLAdmin",
      "outputs": [
        {
          "internalType": "address",
          "name": "",
          "type": "address"
        }
      ],
      "stateMutability": "view",
      "type": "function"
    },
    {
      "inputs": [],
      "name": "getACLManager",
      "outputs": [
        {
          "internalType": "address",
          "name": "",
          "type": "address"
        }
      ],
      "stateMutability": "view",
      "type": "function"
    },
    {
      "inputs": [
        {
          "internalType": "bytes32",
          "name": "id",
          "type": "bytes32"
        }
      ],
      "name": "getAddress",
      "outputs": [
        {
          "internalType": "address",
          "name": "",
          "type": "address"
        }
      ],
      "stateMutability": "view",
      "type": "function"
    },
    {
      "inputs": [],
      "name": "getMarketId",
      "outputs": [
        {
          "internalType": "string",
          "name": "",
          "type": "string"
        }
      ],
      "stateMutability": "view",
      "type": "function"
    },
    {
      "inputs": [],
      "name": "getPool",
      "outputs": [
        {
          "internalType": "address",
          "name": "",
          "type": "address"
        }
      ],
      "stateMutability": "view",
      "type": "function"
    },
    {
      "inputs": [],
      "name": "getPoolConfigurator",
      "outputs": [
        {
          "internalType": "address",
          "name": "",
          "type": "address"
        }
      ],
      "stateMutability": "view",
      "type": "function"
    },
    {
      "inputs": [],
      "name": "getPoolDataProvider",
      "outputs": [
        {
          "internalType": "address",
          "name": "",
          "type": "address"
        }
      ],
      "stateMutability": "view",
      "type": "function"
    },
    {
      "inputs": [],
      "name": "getPriceOracle",
      "outputs": [
        {
          "internalType": "address",
          "name": "",
          "type": "address"
        }
      ],
      "stateMutability": "view",
      "type": "function"
    },
    {
      "inputs": [],
      "name": "getPriceOracleSentinel",
      "outputs": [
        {
          "internalType": "address",
          "name": "",
          "type": "address"
        }
      ],
      "stateMutability": "view",
      "type": "function"
    },
    {
      "inputs": [],
      "name": "owner",
      "outputs": [
        {
          "internalType": "address",
          "name": "",
          "type": "address"
        }
      ],
      "stateMutability": "view",
      "type": "function"
    },
    {
      "inputs": [],
      "name": "renounceOwnership",
      "outputs": [],
      "stateMutability": "nonpayable",
      "type": "function"
    },
    {
      "inputs": [
        {
          "internalType": "address",
          "name": "newAclAdmin",
          "type": "address"
        }
      ],
      "name": "setACLAdmin",
      "outputs": [],
      "stateMutability": "nonpayable",
      "type": "function"
    },
    {
      "inputs": [
        {
          "internalType": "address",
          "name": "newAclManager",
          "type": "address"
        }
      ],
      "name": "setACLManager",
      "outputs": [],
      "stateMutability": "nonpayable",
      "type": "function"
    },
    {
      "inputs": [
        {
          "internalType": "bytes32",
          "name": "id",
          "type": "bytes32"
        },
        {
          "internalType": "address",
          "name": "newAddress",
          "type": "address"
        }
      ],
      "name": "setAddress",
      "outputs": [],
      "stateMutability": "nonpayable",
      "type": "function"
    },
    {
      "inputs": [
        {
          "internalType": "bytes32",
          "name": "id",
          "type": "bytes32"
        },
        {
          "internalType": "address",
          "name": "newImplementationAddress",
          "type": "address"
        }
      ],
      "name": "setAddressAsProxy",
      "outputs": [],
      "stateMutability": "nonpayable",
      "type": "function"
    },
    {
      "inputs": [
        {
          "internalType": "string",
          "name": "newMarketId",
          "type": "string"
        }
      ],
      "name": "setMarketId",
      "outputs": [],
      "stateMutability": "nonpayable",
      "type": "function"
    },
    {
      "inputs": [
        {
          "internalType": "address",
          "name": "newPoolConfiguratorImpl",
          "type": "address"
        }
      ],
      "name": "setPoolConfiguratorImpl",
      "outputs": [],
      "stateMutability": "nonpayable",
      "type": "function"
    },
    {
      "inputs": [
        {
          "internalType": "address",
          "name": "newDataProvider",
          "type": "address"
        }
      ],
      "name": "setPoolDataProvider",
      "outputs": [],
      "stateMutability": "nonpayable",
      "type": "function"
    },
    {
      "inputs": [
        {
          "internalType": "address",
          "name": "newPoolImpl",
          "type": "address"
        }
      ],
      "name": "setPoolImpl",
      "outputs": [],
      "stateMutability": "nonpayable",
      "type": "function"
    },
    {
      "inputs": [
        {
          "internalType": "address",
          "name": "newPriceOracle",
          "type": "address"
        }
      ],
      "name": "setPriceOracle",
      "outputs": [],
      "stateMutability": "nonpayable",
      "type": "function"
    },
    {
      "inputs": [
        {
          "internalType": "address",
          "name": "newPriceOracleSentinel",
          "type": "address"
        }
      ],
      "name": "setPriceOracleSentinel",
      "outputs": [],
      "stateMutability": "nonpayable",
      "type": "function"
    },
    {
      "inputs": [
        {
          "internalType": "address",
          "name": "newOwner",
          "type": "address"
        }
      ],
      "name": "transferOwnership",
      "outputs": [],
      "stateMutability": "nonpayable",
      "type": "function"
    }
  ],
  "contractName": "PoolAddressesProvider",
  "sourceName": "contracts/protocol/configuration/PoolAddressesProvider.sol",
  "bytecode": "0x608060405234801562000010575f80fd5b5060405162001fb238038062001fb28339810160408190526200003391620002e1565b5f80546001600160a01b031916339081178255604051909182915f8051602062001f92833981519152908290a3506200006c826200007f565b620000778162000180565b50506200051a565b5f600180546200008f90620003a9565b80601f0160208091040260200160405190810160405280929190818152602001828054620000bd90620003a9565b80156200010c5780601f10620000e2576101008083540402835291602001916200010c565b820191905f5260205f20905b815481529060010190602001808311620000ee57829003601f168201915b50505050509050816001908162000124919062000435565b5081604051620001359190620004fd565b6040518091039020816040516200014d9190620004fd565b604051908190038120907fe685c8cdecc6030c45030fd54778812cb84ed8e4467c38294403d68ba7860823905f90a35050565b5f546001600160a01b03163314620001df5760405162461bcd60e51b815260206004820181905260248201527f4f776e61626c653a2063616c6c6572206973206e6f7420746865206f776e657260448201526064015b60405180910390fd5b6001600160a01b038116620002465760405162461bcd60e51b815260206004820152602660248201527f4f776e61626c653a206e6577206f776e657220697320746865207a65726f206160448201526564647265737360d01b6064820152608401620001d6565b5f80546040516001600160a01b03808516939216915f8051602062001f9283398151915291a35f80546001600160a01b0319166001600160a01b0392909216919091179055565b634e487b7160e01b5f52604160045260245ffd5b5f5b83811015620002bd578181015183820152602001620002a3565b50505f910152565b80516001600160a01b0381168114620002dc575f80fd5b919050565b5f8060408385031215620002f3575f80fd5b82516001600160401b03808211156200030a575f80fd5b818501915085601f8301126200031e575f80fd5b8151818111156200033357620003336200028d565b604051601f8201601f19908116603f011681019083821181831017156200035e576200035e6200028d565b8160405282815288602084870101111562000377575f80fd5b6200038a836020830160208801620002a1565b8096505050505050620003a060208401620002c5565b90509250929050565b600181811c90821680620003be57607f821691505b602082108103620003dd57634e487b7160e01b5f52602260045260245ffd5b50919050565b601f82111562000430575f81815260208120601f850160051c810160208610156200040b5750805b601f850160051c820191505b818110156200042c5782815560010162000417565b5050505b505050565b81516001600160401b038111156200045157620004516200028d565b6200046981620004628454620003a9565b84620003e3565b602080601f8311600181146200049f575f8415620004875750858301515b5f19600386901b1c1916600185901b1785556200042c565b5f85815260208120601f198616915b82811015620004cf57888601518255948401946001909101908401620004ae565b5085821015620004ed57878501515f19600388901b60f8161c191681555b5050505050600190811b01905550565b5f825162000510818460208701620002a1565b9190910192915050565b611a6a80620005285f395ff3fe608060405234801561000f575f80fd5b506004361061013d575f3560e01c806376d84ffc116100b4578063e4ca28b711610079578063e4ca28b71461024d578063e860accb14610260578063ed301ca914610268578063f2fde38b1461027b578063f67b18471461028e578063fca513a8146102a1575f80fd5b806376d84ffc146101f15780638da5cb5b14610204578063a156440614610214578063ca446dd914610227578063e44e9ed11461023a575f80fd5b80635dcc528c116101055780635dcc528c146101ab5780635eb88d3d146101be578063631adfca146101c6578063707cd716146101ce578063715018a6146101d657806374944cec146101de575f80fd5b8063026b1d5f146101415780630e67178c1461016657806321f8a7211461016e578063530e784f14610181578063568ef47014610196575b5f80fd5b6101496102a9565b6040516001600160a01b0390911681526020015b60405180910390f35b6101496102bf565b61014961017c366004610ed5565b6102d1565b61019461018f366004610f00565b6102eb565b005b61019e6103a4565b60405161015d9190610f6f565b6101946101b9366004610f81565b610434565b6101496104d7565b6101496104f9565b610149610517565b61019461052f565b6101946101ec366004610f00565b6105a0565b6101946101ff366004610f00565b610659565b5f546001600160a01b0316610149565b610194610222366004610f00565b610706565b610194610235366004610f81565b610797565b610194610248366004610f00565b61081d565b61019461025b366004610f00565b6108ce565b610149610979565b610194610276366004610f00565b610993565b610194610289366004610f00565b610a42565b61019461029c366004610fc3565b610b29565b610149610b5e565b5f6102ba631413d3d360e21b6102d1565b905090565b5f6102ba6820a1a62fa0a226a4a760b91b5b5f908152600260205260409020546001600160a01b031690565b5f546001600160a01b0316331461031d5760405162461bcd60e51b81526004016103149061106e565b60405180910390fd5b6b50524943455f4f5241434c4560a01b5f90815260026020527f740f710666bd7a12af42df98311e541e47f7fd33d382d11602457a6d540cbd6380546001600160a01b038481166001600160a01b03198316811790935560405191169283917f56b5f80d8cac1479698aa7d01605fd6111e90b15fc4d2b377417f46034876cbd9190a35050565b6060600180546103b3906110a3565b80601f01602080910402602001604051908101604052809291908181526020018280546103df906110a3565b801561042a5780601f106104015761010080835404028352916020019161042a565b820191905f5260205f20905b81548152906001019060200180831161040d57829003601f168201915b5050505050905090565b5f546001600160a01b0316331461045d5760405162461bcd60e51b81526004016103149061106e565b5f828152600260205260408120546001600160a01b03169061047e84610b77565b905061048a8484610c0e565b6040516001600160a01b038281168252808516919084169086907f3bbd45b5429b385e3fb37ad5cd1cd1435a3c8ec32196c7937597365a3fd3e99c9060200160405180910390a450505050565b5f6102ba7414149250d157d3d49050d31157d4d1539512539153605a1b6102d1565b5f6102ba702827a7a62fa1a7a72324a3aaa920aa27a960791b6102d1565b5f6102ba6a20a1a62fa6a0a720a3a2a960a91b6102d1565b5f546001600160a01b031633146105585760405162461bcd60e51b81526004016103149061106e565b5f80546040516001600160a01b03909116907f8be0079c531659141344cd1fd0a4f28419497f9722a3daafe3b4186f6b6457e0908390a35f80546001600160a01b0319169055565b5f546001600160a01b031633146105c95760405162461bcd60e51b81526004016103149061106e565b7414149250d157d3d49050d31157d4d1539512539153605a1b5f90815260026020527f0d2c1bcee56447b4f46248272f34207a580a5c40f666a31f4e2fbb470ea53ab880546001600160a01b038481166001600160a01b03198316811790935560405191169283917f5326514eeca90494a14bedabcff812a0e683029ee85d1e23824d44fd14cd6ae79190a35050565b5f546001600160a01b031633146106825760405162461bcd60e51b81526004016103149061106e565b6820a1a62fa0a226a4a760b91b5f90815260026020527ffab167ad2009dcb80ee379700bb4bd029d97c1181ed9d961625632c8a6f051c680546001600160a01b038481166001600160a01b03198316811790935560405191169283917fe9cf53972264dc95304fd424458745019ddfca0e37ae8f703d74772c41ad115b9190a35050565b5f546001600160a01b0316331461072f5760405162461bcd60e51b81526004016103149061106e565b5f610740631413d3d360e21b610b77565b9050610753631413d3d360e21b83610c0e565b816001600160a01b0316816001600160a01b03167f90affc163f1a2dfedcd36aa02ed992eeeba8100a4014f0b4cdc20ea265a6662760405160405180910390a35050565b5f546001600160a01b031633146107c05760405162461bcd60e51b81526004016103149061106e565b5f8281526002602052604080822080546001600160a01b031981166001600160a01b038681169182179093559251911692839186917f9ef0e8c8e52743bb38b83b17d9429141d494b8041ca6d616a6c77cebae9cd8b791a4505050565b5f546001600160a01b031633146108465760405162461bcd60e51b81526004016103149061106e565b6c2220aa20afa82927ab24a222a960991b5f90815260026020527fcd7944601aaa5cd7ccdae1bebec659e98c6aac8f12486b30e59db0d39698051f80546001600160a01b038481166001600160a01b03198316811790935560405191169283917fc853974cfbf81487a14a23565917bee63f527853bcb5fa54f2ae1cdf8a38356d9190a35050565b5f546001600160a01b031633146108f75760405162461bcd60e51b81526004016103149061106e565b5f610915702827a7a62fa1a7a72324a3aaa920aa27a960791b610b77565b9050610935702827a7a62fa1a7a72324a3aaa920aa27a960791b83610c0e565b816001600160a01b0316816001600160a01b03167f8932892569eba59c8382a089d9b732d1f49272878775235761a2a6b0309cd46560405160405180910390a35050565b5f6102ba6c2220aa20afa82927ab24a222a960991b6102d1565b5f546001600160a01b031633146109bc5760405162461bcd60e51b81526004016103149061106e565b6a20a1a62fa6a0a720a3a2a960a91b5f90815260026020527f9edef266ef35fd0c6e131df0f31a330f3dd4c4d19dd31ed615c21d005c68116b80546001600160a01b038481166001600160a01b03198316811790935560405191169283917fb30efa04327bb8a537d61cc1e5c48095345ad18ef7cc04e6bacf7dfb6caaf5079190a35050565b5f546001600160a01b03163314610a6b5760405162461bcd60e51b81526004016103149061106e565b6001600160a01b038116610ad05760405162461bcd60e51b815260206004820152602660248201527f4f776e61626c653a206e6577206f776e657220697320746865207a65726f206160448201526564647265737360d01b6064820152608401610314565b5f80546040516001600160a01b03808516939216917f8be0079c531659141344cd1fd0a4f28419497f9722a3daafe3b4186f6b6457e091a35f80546001600160a01b0319166001600160a01b0392909216919091179055565b5f546001600160a01b03163314610b525760405162461bcd60e51b81526004016103149061106e565b610b5b81610dd5565b50565b5f6102ba6b50524943455f4f5241434c4560a01b6102d1565b5f818152600260205260408120546001600160a01b031680610b9b57505f92915050565b5f819050806001600160a01b0316635c60da1b6040518163ffffffff1660e01b81526004016020604051808303815f875af1158015610bdc573d5f803e3d5ffd5b505050506040513d601f19601f82011682018060405250810190610c0091906110d5565b949350505050565b50919050565b5f828152600260205260408082205490513060248201526001600160a01b039091169190819060440160408051601f198184030181529190526020810180516001600160e01b031663189acdbd60e31b17905290506001600160a01b038316610d6f5730604051610c7e90610ec8565b6001600160a01b039091168152602001604051809103905ff080158015610ca7573d5f803e3d5ffd5b505f868152600260205260409081902080546001600160a01b0319166001600160a01b038416908117909155905163347d5e2560e21b81529194508493509063d1f5789490610cfc90879085906004016110f0565b5f604051808303815f87803b158015610d13575f80fd5b505af1158015610d25573d5f803e3d5ffd5b50505050836001600160a01b0316836001600160a01b0316867f4a465a9bd819d9662563c1e11ae958f8109e437e7f4bf1c6ef0b9a7b3f35d47860405160405180910390a4610dce565b60405163278f794360e11b81528392506001600160a01b03831690634f1ef28690610da090879085906004016110f0565b5f604051808303815f87803b158015610db7575f80fd5b505af1158015610dc9573d5f803e3d5ffd5b505050505b5050505050565b5f60018054610de3906110a3565b80601f0160208091040260200160405190810160405280929190818152602001828054610e0f906110a3565b8015610e5a5780601f10610e3157610100808354040283529160200191610e5a565b820191905f5260205f20905b815481529060010190602001808311610e3d57829003601f168201915b505050505090508160019081610e709190611161565b5081604051610e7f919061121d565b604051809103902081604051610e95919061121d565b604051908190038120907fe685c8cdecc6030c45030fd54778812cb84ed8e4467c38294403d68ba7860823905f90a35050565b6107fc8061123983390190565b5f60208284031215610ee5575f80fd5b5035919050565b6001600160a01b0381168114610b5b575f80fd5b5f60208284031215610f10575f80fd5b8135610f1b81610eec565b9392505050565b5f5b83811015610f3c578181015183820152602001610f24565b50505f910152565b5f8151808452610f5b816020860160208601610f22565b601f01601f19169290920160200192915050565b602081525f610f1b6020830184610f44565b5f8060408385031215610f92575f80fd5b823591506020830135610fa481610eec565b809150509250929050565b634e487b7160e01b5f52604160045260245ffd5b5f60208284031215610fd3575f80fd5b813567ffffffffffffffff80821115610fea575f80fd5b818401915084601f830112610ffd575f80fd5b81358181111561100f5761100f610faf565b604051601f8201601f19908116603f0116810190838211818310171561103757611037610faf565b8160405282815287602084870101111561104f575f80fd5b826020860160208301375f928101602001929092525095945050505050565b6020808252818101527f4f776e61626c653a2063616c6c6572206973206e6f7420746865206f776e6572604082015260600190565b600181811c908216806110b757607f821691505b602082108103610c0857634e487b7160e01b5f52602260045260245ffd5b5f602082840312156110e5575f80fd5b8151610f1b81610eec565b6001600160a01b03831681526040602082018190525f90610c0090830184610f44565b601f82111561115c575f81815260208120601f850160051c810160208610156111395750805b601f850160051c820191505b8181101561115857828155600101611145565b5050505b505050565b815167ffffffffffffffff81111561117b5761117b610faf565b61118f8161118984546110a3565b84611113565b602080601f8311600181146111c2575f84156111ab5750858301515b5f19600386901b1c1916600185901b178555611158565b5f85815260208120601f198616915b828110156111f0578886015182559484019460019091019084016111d1565b508582101561120d57878501515f19600388901b60f8161c191681555b5050505050600190811b01905550565b5f825161122e818460208701610f22565b919091019291505056fe60a060405234801561000f575f80fd5b506040516107fc3803806107fc83398101604081905261002e9161003f565b6001600160a01b031660805261006c565b5f6020828403121561004f575f80fd5b81516001600160a01b0381168114610065575f80fd5b9392505050565b6080516107556100a75f395f818161010d01528181610151015281816102030152818161033701528181610360015261047b01526107555ff3fe608060405260043610610049575f3560e01c80633659cfe6146100535780634f1ef286146100725780635c60da1b14610085578063d1f57894146100b5578063f851a440146100c8575b6100516100dc565b005b34801561005e575f80fd5b5061005161006d36600461051f565b610103565b61005161008036600461053f565b610147565b348015610090575f80fd5b506100996101f8565b6040516001600160a01b03909116815260200160405180910390f35b6100516100c33660046105cf565b610247565b3480156100d3575f80fd5b5061009961032c565b6100e4610382565b6101016100fc5f805160206107008339815191525490565b61038a565b565b6001600160a01b037f000000000000000000000000000000000000000000000000000000000000000016330361013f5761013c816103a8565b50565b61013c6100dc565b6001600160a01b037f00000000000000000000000000000000000000000000000000000000000000001633036101eb57610180836103a8565b5f836001600160a01b0316838360405161019b92919061068b565b5f60405180830381855af49150503d805f81146101d3576040519150601f19603f3d011682016040523d82523d5f602084013e6101d8565b606091505b50509050806101e5575f80fd5b50505050565b6101f36100dc565b505050565b5f6001600160a01b037f000000000000000000000000000000000000000000000000000000000000000016330361023c57505f805160206107008339815191525490565b6102446100dc565b90565b5f61025d5f805160206107008339815191525490565b6001600160a01b03161461026f575f80fd5b61029a60017f360894a13ba1a3210667c828492db98dca3e2076cc3735a920a3ca505d382bbd61069a565b5f80516020610700833981519152146102b5576102b56106bf565b6102be826103e7565b805115610328575f826001600160a01b0316826040516102de91906106d3565b5f60405180830381855af49150503d805f8114610316576040519150601f19603f3d011682016040523d82523d5f602084013e61031b565b606091505b50509050806101f3575f80fd5b5050565b5f6001600160a01b037f000000000000000000000000000000000000000000000000000000000000000016330361023c57507f000000000000000000000000000000000000000000000000000000000000000090565b610101610471565b365f80375f80365f845af43d5f803e8080156103a4573d5ff35b3d5ffd5b6103b1816103e7565b6040516001600160a01b038216907fbc7cd75a20ee27fd9adebab32041f755214dbc6bffa90cc0225b39da2e5c2d3b905f90a250565b803b6104605760405162461bcd60e51b815260206004820152603b60248201527f43616e6e6f742073657420612070726f787920696d706c656d656e746174696f60448201527f6e20746f2061206e6f6e2d636f6e74726163742061646472657373000000000060648201526084015b60405180910390fd5b5f8051602061070083398151915255565b6001600160a01b037f00000000000000000000000000000000000000000000000000000000000000001633036101015760405162461bcd60e51b815260206004820152603260248201527f43616e6e6f742063616c6c2066616c6c6261636b2066756e6374696f6e20667260448201527137b6903a343290383937bc3c9030b236b4b760711b6064820152608401610457565b80356001600160a01b038116811461051a575f80fd5b919050565b5f6020828403121561052f575f80fd5b61053882610504565b9392505050565b5f805f60408486031215610551575f80fd5b61055a84610504565b9250602084013567ffffffffffffffff80821115610576575f80fd5b818601915086601f830112610589575f80fd5b813581811115610597575f80fd5b8760208285010111156105a8575f80fd5b6020830194508093505050509250925092565b634e487b7160e01b5f52604160045260245ffd5b5f80604083850312156105e0575f80fd5b6105e983610504565b9150602083013567ffffffffffffffff80821115610605575f80fd5b818501915085601f830112610618575f80fd5b81358181111561062a5761062a6105bb565b604051601f8201601f19908116603f01168101908382118183101715610652576106526105bb565b8160405282815288602084870101111561066a575f80fd5b826020860160208301375f6020848301015280955050505050509250929050565b818382375f9101908152919050565b818103818111156106b957634e487b7160e01b5f52601160045260245ffd5b92915050565b634e487b7160e01b5f52600160045260245ffd5b5f82515f5b818110156106f257602081860181015185830152016106d8565b505f92019182525091905056fe360894a13ba1a3210667c828492db98dca3e2076cc3735a920a3ca505d382bbca26469706673582212204adbed3601823f6db8bdf349b6650c3eeecffd7efa3f323f34512ffb3620122d64736f6c63430008140033a2646970667358221220f8b7e7664dfa060f4cce3bc8c1c06c63cd4a9607fb9839000bead77fc78b599a64736f6c634300081400338be0079c531659141344cd1fd0a4f28419497f9722a3daafe3b4186f6b6457e0",
  "linkReferences": {},
  "deployedLinkReferences": {},
  "immutableReferences": {},
  "inputSourceName": "project/contracts/protocol/configuration/PoolAddressesProvider.sol",
  "devdoc": {
    "author": "Aave",
    "details": "Acts as factory of proxies and admin of those, so with right to change its implementationsOwned by the Aave Governance",
    "events": {
      "ACLAdminUpdated(address,address)": {
        "details": "Emitted when the ACL admin is updated.",
        "params": {
          "newAddress": "The new address of the ACLAdmin",
          "oldAddress": "The old address of the ACLAdmin"
        }
      },
      "ACLManagerUpdated(address,address)": {
        "details": "Emitted when the ACL manager is updated.",
        "params": {
          "newAddress": "The new address of the ACLManager",
          "oldAddress": "The old address of the ACLManager"
        }
      },
      "AddressSet(bytes32,address,address)": {
        "details": "Emitted when a new non-proxied contract address is registered.",
        "params": {
          "id": "The identifier of the contract",
          "newAddress": "The address of the new contract",
          "oldAddress": "The address of the old contract"
        }
      },
      "AddressSetAsProxy(bytes32,address,address,address)": {
        "details": "Emitted when the implementation of the proxy registered with id is updated",
        "params": {
          "id": "The identifier of the contract",
          "newImplementationAddress": "The address of the new implementation contract",
          "oldImplementationAddress": "The address of the old implementation contract",
          "proxyAddress": "The address of the proxy contract"
        }
      },
      "MarketIdSet(string,string)": {
        "details": "Emitted when the market identifier is updated.",
        "params": {
          "newMarketId": "The new id of the market",
          "oldMarketId": "The old id of the market"
        }
      },
      "PoolConfiguratorUpdated(address,address)": {
        "details": "Emitted when the pool configurator is updated.",
        "params": {
          "newAddress": "The new address of the PoolConfigurator",
          "oldAddress": "The old address of the PoolConfigurator"
        }
      },
      "PoolDataProviderUpdated(address,address)": {
        "details": "Emitted when the pool data provider is updated.",
        "params": {
          "newAddress": "The new address of the PoolDataProvider",
          "oldAddress": "The old address of the PoolDataProvider"
        }
      },
      "PoolUpdated(address,address)": {
        "details": "Emitted when the pool is updated.",
        "params": {
          "newAddress": "The new address of the Pool",
          "oldAddress": "The old address of the Pool"
        }
      },
      "PriceOracleSentinelUpdated(address,address)": {
        "details": "Emitted when the price oracle sentinel is updated.",
        "params": {
          "newAddress": "The new address of the PriceOracleSentinel",
          "oldAddress": "The old address of the PriceOracleSentinel"
        }
      },
      "PriceOracleUpdated(address,address)": {
        "details": "Emitted when the price oracle is updated.",
        "params": {
          "newAddress": "The new address of the PriceOracle",
          "oldAddress": "The old address of the PriceOracle"
        }
      },
      "ProxyCreated(bytes32,address,address)": {
        "details": "Emitted when a new proxy is created.",
        "params": {
          "id": "The identifier of the proxy",
          "implementationAddress": "The address of the implementation contract",
          "proxyAddress": "The address of the created proxy contract"
        }
      }
    },
    "kind": "dev",
    "methods": {
      "constructor": {
        "details": "Constructor.",
        "params": {
          "marketId": "The identifier of the market.",
          "owner": "The owner address of this contract."
        }
      },
      "getACLAdmin()": {
        "returns": {
          "_0": "The address of the ACL admin"
        }
      },
      "getACLManager()": {
        "returns": {
          "_0": "The address of the ACLManager"
        }
      },
      "getAddress(bytes32)": {
        "details": "The returned address might be an EOA or a contract, potentially proxiedIt returns ZERO if there is no registered address with the given id",
        "params": {
          "id": "The id"
        },
        "returns": {
          "_0": "The address of the registered for the specified id"
        }
      },
      "getMarketId()": {
        "returns": {
          "_0": "The market id"
        }
      },
      "getPool()": {
        "returns": {
          "_0": "The Pool proxy address"
        }
      },
      "getPoolConfigurator()": {
        "returns": {
          "_0": "The PoolConfigurator proxy address"
        }
      },
      "getPoolDataProvider()": {
        "returns": {
          "_0": "The address of the DataProvider"
        }
      },
      "getPriceOracle()": {
        "returns": {
          "_0": "The address of the PriceOracle"
        }
      },
      "getPriceOracleSentinel()": {
        "returns": {
          "_0": "The address of the PriceOracleSentinel"
        }
      },
      "owner()": {
        "details": "Returns the address of the current owner."
      },
      "renounceOwnership()": {
        "details": "Leaves the contract without owner. It will not be possible to call `onlyOwner` functions anymore. Can only be called by the current owner. NOTE: Renouncing ownership will leave the contract without an owner, thereby removing any functionality that is only available to the owner."
      },
      "setACLAdmin(address)": {
        "params": {
          "newAclAdmin": "The address of the new ACL admin"
        }
      },
      "setACLManager(address)": {
        "params": {
          "newAclManager": "The address of the new ACLManager"
        }
      },
      "setAddress(bytes32,address)": {
        "details": "IMPORTANT Use this function carefully, as it will do a hard replacement",
        "params": {
          "id": "The id",
          "newAddress": "The address to set"
        }
      },
      "setAddressAsProxy(bytes32,address)": {
        "details": "IMPORTANT Use this function carefully, only for ids that don't have an explicit setter function, in order to avoid unexpected consequences",
        "params": {
          "id": "The id",
          "newImplementationAddress": "The address of the new implementation"
        }
      },
      "setMarketId(string)": {
        "details": "This can be used to create an onchain registry of PoolAddressesProviders to identify and validate multiple Aave markets.",
        "params": {
          "newMarketId": "The market id"
        }
      },
      "setPoolConfiguratorImpl(address)": {
        "params": {
          "newPoolConfiguratorImpl": "The new PoolConfigurator implementation"
        }
      },
      "setPoolDataProvider(address)": {
        "params": {
          "newDataProvider": "The address of the new DataProvider"
        }
      },
      "setPoolImpl(address)": {
        "params": {
          "newPoolImpl": "The new Pool implementation"
        }
      },
      "setPriceOracle(address)": {
        "params": {
          "newPriceOracle": "The address of the new PriceOracle"
        }
      },
      "setPriceOracleSentinel(address)": {
        "params": {
          "newPriceOracleSentinel": "The address of the new PriceOracleSentinel"
        }
      },
      "transferOwnership(address)": {
        "details": "Transfers ownership of the contract to a new account (`newOwner`). Can only be called by the current owner."
      }
    },
    "title": "PoolAddressesProvider",
    "version": 1
  },
  "evm": {
    "gasEstimates": {
      "creation": {
        "codeDepositCost": "1352400",
        "executionCost": "infinite",
        "totalCost": "infinite"
      },
      "external": {
        "getACLAdmin()": "2477",
        "getACLManager()": "2531",
        "getAddress(bytes32)": "2543",
        "getMarketId()": "infinite",
        "getPool()": "2466",
        "getPoolConfigurator()": "2509",
        "getPoolDataProvider()": "2486",
        "getPriceOracle()": "2574",
        "getPriceOracleSentinel()": "2487",
        "owner()": "2363",
        "renounceOwnership()": "30272",
        "setACLAdmin(address)": "28285",
        "setACLManager(address)": "28328",
        "setAddress(bytes32,address)": "28804",
        "setAddressAsProxy(bytes32,address)": "infinite",
        "setMarketId(string)": "infinite",
        "setPoolConfiguratorImpl(address)": "infinite",
        "setPoolDataProvider(address)": "28373",
        "setPoolImpl(address)": "infinite",
        "setPriceOracle(address)": "28352",
        "setPriceOracleSentinel(address)": "28395",
        "transferOwnership(address)": "30477"
      },
      "internal": {
        "_getProxyImplementation(bytes32)": "infinite",
        "_setMarketId(string memory)": "infinite",
        "_updateImpl(bytes32,address)": "infinite"
      }
    }
  },
  "storageLayout": {
    "storage": [
      {
        "astId": 2264,
        "contract": "project/contracts/protocol/configuration/PoolAddressesProvider.sol:PoolAddressesProvider",
        "label": "_owner",
        "offset": 0,
        "slot": "0",
        "type": "t_address"
      },
      {
        "astId": 15064,
        "contract": "project/contracts/protocol/configuration/PoolAddressesProvider.sol:PoolAddressesProvider",
        "label": "_marketId",
        "offset": 0,
        "slot": "1",
        "type": "t_string_storage"
      },
      {
        "astId": 15068,
        "contract": "project/contracts/protocol/configuration/PoolAddressesProvider.sol:PoolAddressesProvider",
        "label": "_addresses",
        "offset": 0,
        "slot": "2",
        "type": "t_mapping(t_bytes32,t_address)"
      }
    ],
    "types": {
      "t_address": {
        "encoding": "inplace",
        "label": "address",
        "numberOfBytes": "20"
      },
      "t_bytes32": {
        "encoding": "inplace",
        "label": "bytes32",
        "numberOfBytes": "32"
      },
      "t_mapping(t_bytes32,t_address)": {
        "encoding": "mapping",
        "key": "t_bytes32",
        "label": "mapping(bytes32 => address)",
        "numberOfBytes": "32",
        "value": "t_address"
      },
      "t_string_storage": {
        "encoding": "bytes",
        "label": "string",
        "numberOfBytes": "32"
      }
    }
  },
  "userdoc": {
    "kind": "user",
    "methods": {
      "getACLAdmin()": {
        "notice": "Returns the address of the ACL admin."
      },
      "getACLManager()": {
        "notice": "Returns the address of the ACL manager."
      },
      "getAddress(bytes32)": {
        "notice": "Returns an address by its identifier."
      },
      "getMarketId()": {
        "notice": "Returns the id of the Aave market to which this contract points to."
      },
      "getPool()": {
        "notice": "Returns the address of the Pool proxy."
      },
      "getPoolConfigurator()": {
        "notice": "Returns the address of the PoolConfigurator proxy."
      },
      "getPoolDataProvider()": {
        "notice": "Returns the address of the data provider."
      },
      "getPriceOracle()": {
        "notice": "Returns the address of the price oracle."
      },
      "getPriceOracleSentinel()": {
        "notice": "Returns the address of the price oracle sentinel."
      },
      "setACLAdmin(address)": {
        "notice": "Updates the address of the ACL admin."
      },
      "setACLManager(address)": {
        "notice": "Updates the address of the ACL manager."
      },
      "setAddress(bytes32,address)": {
        "notice": "Sets an address for an id replacing the address saved in the addresses map."
      },
      "setAddressAsProxy(bytes32,address)": {
        "notice": "General function to update the implementation of a proxy registered with certain `id`. If there is no proxy registered, it will instantiate one and set as implementation the `newImplementationAddress`."
      },
      "setMarketId(string)": {
        "notice": "Associates an id with a specific PoolAddressesProvider."
      },
      "setPoolConfiguratorImpl(address)": {
        "notice": "Updates the implementation of the PoolConfigurator, or creates a proxy setting the new `PoolConfigurator` implementation when the function is called for the first time."
      },
      "setPoolDataProvider(address)": {
        "notice": "Updates the address of the data provider."
      },
      "setPoolImpl(address)": {
        "notice": "Updates the implementation of the Pool, or creates a proxy setting the new `pool` implementation when the function is called for the first time."
      },
      "setPriceOracle(address)": {
        "notice": "Updates the address of the price oracle."
      },
      "setPriceOracleSentinel(address)": {
        "notice": "Updates the address of the price oracle sentinel."
      }
    },
    "notice": "Main registry of addresses part of or connected to the protocol, including permissioned roles",
    "version": 1
  },
  "argsData": "0x0000000000000000000000000000000000000000000000000000000000000040000000000000000000000000e55d6fbfd2da1562187bbc5b874a070a490f410b000000000000000000000000000000000000000000000000000000000000000e56696374696f6e204d61726b6574000000000000000000000000000000000000",
  "transaction": {
    "hash": "0x8b38cb9a64b0b723d80c229cb5302112327c7f3596b30f6e9bc8636543360e04",
    "nonce": "0x1d9",
    "origin": "0xe55d6fbfd2da1562187bbc5b874a070a490f410b"
  }
}