{
  "address": "0x27e5af6c6cd9432f82f8f671cb4d1c39554edd87",
  "abi": [
    {
      "anonymous": false,
      "inputs": [
        {
          "indexed": true,
          "internalType": "address",
          "name": "asset",
          "type": "address"
        },
        {
          "indexed": true,
          "internalType": "address",
          "name": "proxy",
          "type": "address"
        },
        {
          "indexed": true,
          "internalType": "address",
          "name": "implementation",
          "type": "address"
        }
      ],
      "name": "ATokenUpgraded",
      "type": "event"
    },
    {
      "anonymous": false,
      "inputs": [
        {
          "indexed": true,
          "internalType": "address",
          "name": "asset",
          "type": "address"
        },
        {
          "indexed": false,
          "internalType": "uint256",
          "name": "oldBorrowCap",
          "type": "uint256"
        },
        {
          "indexed": false,
          "internalType": "uint256",
          "name": "newBorrowCap",
          "type": "uint256"
        }
      ],
      "name": "BorrowCapChanged",
      "type": "event"
    },
    {
      "anonymous": false,
      "inputs": [
        {
          "indexed": false,
          "internalType": "address",
          "name": "asset",
          "type": "address"
        },
        {
          "indexed": false,
          "internalType": "bool",
          "name": "borrowable",
          "type": "bool"
        }
      ],
      "name": "BorrowableInIsolationChanged",
      "type": "event"
    },
    {
      "anonymous": false,
      "inputs": [
        {
          "indexed": false,
          "internalType": "uint256",
          "name": "oldBridgeProtocolFee",
          "type": "uint256"
        },
        {
          "indexed": false,
          "internalType": "uint256",
          "name": "newBridgeProtocolFee",
          "type": "uint256"
        }
      ],
      "name": "BridgeProtocolFeeUpdated",
      "type": "event"
    },
    {
      "anonymous": false,
      "inputs": [
        {
          "indexed": true,
          "internalType": "address",
          "name": "asset",
          "type": "address"
        },
        {
          "indexed": false,
          "internalType": "uint256",
          "name": "ltv",
          "type": "uint256"
        },
        {
          "indexed": false,
          "internalType": "uint256",
          "name": "liquidationThreshold",
          "type": "uint256"
        },
        {
          "indexed": false,
          "internalType": "uint256",
          "name": "liquidationBonus",
          "type": "uint256"
        }
      ],
      "name": "CollateralConfigurationChanged",
      "type": "event"
    },
    {
      "anonymous": false,
      "inputs": [
        {
          "indexed": true,
          "internalType": "address",
          "name": "asset",
          "type": "address"
        },
        {
          "indexed": false,
          "internalType": "uint256",
          "name": "oldDebtCeiling",
          "type": "uint256"
        },
        {
          "indexed": false,
          "internalType": "uint256",
          "name": "newDebtCeiling",
          "type": "uint256"
        }
      ],
      "name": "DebtCeilingChanged",
      "type": "event"
    },
    {
      "anonymous": false,
      "inputs": [
        {
          "indexed": true,
          "internalType": "address",
          "name": "asset",
          "type": "address"
        },
        {
          "indexed": false,
          "internalType": "uint8",
          "name": "oldCategoryId",
          "type": "uint8"
        },
        {
          "indexed": false,
          "internalType": "uint8",
          "name": "newCategoryId",
          "type": "uint8"
        }
      ],
      "name": "EModeAssetCategoryChanged",
      "type": "event"
    },
    {
      "anonymous": false,
      "inputs": [
        {
          "indexed": true,
          "internalType": "uint8",
          "name": "categoryId",
          "type": "uint8"
        },
        {
          "indexed": false,
          "internalType": "uint256",
          "name": "ltv",
          "type": "uint256"
        },
        {
          "indexed": false,
          "internalType": "uint256",
          "name": "liquidationThreshold",
          "type": "uint256"
        },
        {
          "indexed": false,
          "internalType": "uint256",
          "name": "liquidationBonus",
          "type": "uint256"
        },
        {
          "indexed": false,
          "internalType": "address",
          "name": "oracle",
          "type": "address"
        },
        {
          "indexed": false,
          "internalType": "string",
          "name": "label",
          "type": "string"
        }
      ],
      "name": "EModeCategoryAdded",
      "type": "event"
    },
    {
      "anonymous": false,
      "inputs": [
        {
          "indexed": false,
          "internalType": "uint128",
          "name": "oldFlashloanPremiumToProtocol",
          "type": "uint128"
        },
        {
          "indexed": false,
          "internalType": "uint128",
          "name": "newFlashloanPremiumToProtocol",
          "type": "uint128"
        }
      ],
      "name": "FlashloanPremiumToProtocolUpdated",
      "type": "event"
    },
    {
      "anonymous": false,
      "inputs": [
        {
          "indexed": false,
          "internalType": "uint128",
          "name": "oldFlashloanPremiumTotal",
          "type": "uint128"
        },
        {
          "indexed": false,
          "internalType": "uint128",
          "name": "newFlashloanPremiumTotal",
          "type": "uint128"
        }
      ],
      "name": "FlashloanPremiumTotalUpdated",
      "type": "event"
    },
    {
      "anonymous": false,
      "inputs": [
        {
          "indexed": true,
          "internalType": "address",
          "name": "asset",
          "type": "address"
        },
        {
          "indexed": false,
          "internalType": "uint256",
          "name": "oldFee",
          "type": "uint256"
        },
        {
          "indexed": false,
          "internalType": "uint256",
          "name": "newFee",
          "type": "uint256"
        }
      ],
      "name": "LiquidationProtocolFeeChanged",
      "type": "event"
    },
    {
      "anonymous": false,
      "inputs": [
        {
          "indexed": true,
          "internalType": "address",
          "name": "asset",
          "type": "address"
        },
        {
          "indexed": false,
          "internalType": "bool",
          "name": "active",
          "type": "bool"
        }
      ],
      "name": "ReserveActive",
      "type": "event"
    },
    {
      "anonymous": false,
      "inputs": [
        {
          "indexed": true,
          "internalType": "address",
          "name": "asset",
          "type": "address"
        },
        {
          "indexed": false,
          "internalType": "bool",
          "name": "enabled",
          "type": "bool"
        }
      ],
      "name": "ReserveBorrowing",
      "type": "event"
    },
    {
      "anonymous": false,
      "inputs": [
        {
          "indexed": true,
          "internalType": "address",
          "name": "asset",
          "type": "address"
        }
      ],
      "name": "ReserveDropped",
      "type": "event"
    },
    {
      "anonymous": false,
      "inputs": [
        {
          "indexed": true,
          "internalType": "address",
          "name": "asset",
          "type": "address"
        },
        {
          "indexed": false,
          "internalType": "uint256",
          "name": "oldReserveFactor",
          "type": "uint256"
        },
        {
          "indexed": false,
          "internalType": "uint256",
          "name": "newReserveFactor",
          "type": "uint256"
        }
      ],
      "name": "ReserveFactorChanged",
      "type": "event"
    },
    {
      "anonymous": false,
      "inputs": [
        {
          "indexed": true,
          "internalType": "address",
          "name": "asset",
          "type": "address"
        },
        {
          "indexed": false,
          "internalType": "bool",
          "name": "enabled",
          "type": "bool"
        }
      ],
      "name": "ReserveFlashLoaning",
      "type": "event"
    },
    {
      "anonymous": false,
      "inputs": [
        {
          "indexed": true,
          "internalType": "address",
          "name": "asset",
          "type": "address"
        },
        {
          "indexed": false,
          "internalType": "bool",
          "name": "frozen",
          "type": "bool"
        }
      ],
      "name": "ReserveFrozen",
      "type": "event"
    },
    {
      "anonymous": false,
      "inputs": [
        {
          "indexed": true,
          "internalType": "address",
          "name": "asset",
          "type": "address"
        },
        {
          "indexed": true,
          "internalType": "address",
          "name": "aToken",
          "type": "address"
        },
        {
          "indexed": false,
          "internalType": "address",
          "name": "stableDebtToken",
          "type": "address"
        },
        {
          "indexed": false,
          "internalType": "address",
          "name": "variableDebtToken",
          "type": "address"
        },
        {
          "indexed": false,
          "internalType": "address",
          "name": "interestRateStrategyAddress",
          "type": "address"
        }
      ],
      "name": "ReserveInitialized",
      "type": "event"
    },
    {
      "anonymous": false,
      "inputs": [
        {
          "indexed": true,
          "internalType": "address",
          "name": "asset",
          "type": "address"
        },
        {
          "indexed": false,
          "internalType": "address",
          "name": "oldStrategy",
          "type": "address"
        },
        {
          "indexed": false,
          "internalType": "address",
          "name": "newStrategy",
          "type": "address"
        }
      ],
      "name": "ReserveInterestRateStrategyChanged",
      "type": "event"
    },
    {
      "anonymous": false,
      "inputs": [
        {
          "indexed": true,
          "internalType": "address",
          "name": "asset",
          "type": "address"
        },
        {
          "indexed": false,
          "internalType": "bool",
          "name": "paused",
          "type": "bool"
        }
      ],
      "name": "ReservePaused",
      "type": "event"
    },
    {
      "anonymous": false,
      "inputs": [
        {
          "indexed": true,
          "internalType": "address",
          "name": "asset",
          "type": "address"
        },
        {
          "indexed": false,
          "internalType": "bool",
          "name": "enabled",
          "type": "bool"
        }
      ],
      "name": "ReserveStableRateBorrowing",
      "type": "event"
    },
    {
      "anonymous": false,
      "inputs": [
        {
          "indexed": true,
          "internalType": "address",
          "name": "asset",
          "type": "address"
        },
        {
          "indexed": false,
          "internalType": "bool",
          "name": "oldState",
          "type": "bool"
        },
        {
          "indexed": false,
          "internalType": "bool",
          "name": "newState",
          "type": "bool"
        }
      ],
      "name": "SiloedBorrowingChanged",
      "type": "event"
    },
    {
      "anonymous": false,
      "inputs": [
        {
          "indexed": true,
          "internalType": "address",
          "name": "asset",
          "type": "address"
        },
        {
          "indexed": true,
          "internalType": "address",
          "name": "proxy",
          "type": "address"
        },
        {
          "indexed": true,
          "internalType": "address",
          "name": "implementation",
          "type": "address"
        }
      ],
      "name": "StableDebtTokenUpgraded",
      "type": "event"
    },
    {
      "anonymous": false,
      "inputs": [
        {
          "indexed": true,
          "internalType": "address",
          "name": "asset",
          "type": "address"
        },
        {
          "indexed": false,
          "internalType": "uint256",
          "name": "oldSupplyCap",
          "type": "uint256"
        },
        {
          "indexed": false,
          "internalType": "uint256",
          "name": "newSupplyCap",
          "type": "uint256"
        }
      ],
      "name": "SupplyCapChanged",
      "type": "event"
    },
    {
      "anonymous": false,
      "inputs": [
        {
          "indexed": true,
          "internalType": "address",
          "name": "asset",
          "type": "address"
        },
        {
          "indexed": false,
          "internalType": "uint256",
          "name": "oldUnbackedMintCap",
          "type": "uint256"
        },
        {
          "indexed": false,
          "internalType": "uint256",
          "name": "newUnbackedMintCap",
          "type": "uint256"
        }
      ],
      "name": "UnbackedMintCapChanged",
      "type": "event"
    },
    {
      "anonymous": false,
      "inputs": [
        {
          "indexed": true,
          "internalType": "address",
          "name": "asset",
          "type": "address"
        },
        {
          "indexed": true,
          "internalType": "address",
          "name": "proxy",
          "type": "address"
        },
        {
          "indexed": true,
          "internalType": "address",
          "name": "implementation",
          "type": "address"
        }
      ],
      "name": "VariableDebtTokenUpgraded",
      "type": "event"
    },
    {
      "inputs": [],
      "name": "CONFIGURATOR_REVISION",
      "outputs": [
        {
          "internalType": "uint256",
          "name": "",
          "type": "uint256"
        }
      ],
      "stateMutability": "view",
      "type": "function"
    },
    {
      "inputs": [
        {
          "internalType": "address",
          "name": "asset",
          "type": "address"
        },
        {
          "internalType": "uint256",
          "name": "ltv",
          "type": "uint256"
        },
        {
          "internalType": "uint256",
          "name": "liquidationThreshold",
          "type": "uint256"
        },
        {
          "internalType": "uint256",
          "name": "liquidationBonus",
          "type": "uint256"
        }
      ],
      "name": "configureReserveAsCollateral",
      "outputs": [],
      "stateMutability": "nonpayable",
      "type": "function"
    },
    {
      "inputs": [
        {
          "internalType": "address",
          "name": "asset",
          "type": "address"
        }
      ],
      "name": "dropReserve",
      "outputs": [],
      "stateMutability": "nonpayable",
      "type": "function"
    },
    {
      "inputs": [
        {
          "components": [
            {
              "internalType": "address",
              "name": "aTokenImpl",
              "type": "address"
            },
            {
              "internalType": "address",
              "name": "stableDebtTokenImpl",
              "type": "address"
            },
            {
              "internalType": "address",
              "name": "variableDebtTokenImpl",
              "type": "address"
            },
            {
              "internalType": "uint8",
              "name": "underlyingAssetDecimals",
              "type": "uint8"
            },
            {
              "internalType": "address",
              "name": "interestRateStrategyAddress",
              "type": "address"
            },
            {
              "internalType": "address",
              "name": "underlyingAsset",
              "type": "address"
            },
            {
              "internalType": "address",
              "name": "treasury",
              "type": "address"
            },
            {
              "internalType": "address",
              "name": "incentivesController",
              "type": "address"
            },
            {
              "internalType": "string",
              "name": "aTokenName",
              "type": "string"
            },
            {
              "internalType": "string",
              "name": "aTokenSymbol",
              "type": "string"
            },
            {
              "internalType": "string",
              "name": "variableDebtTokenName",
              "type": "string"
            },
            {
              "internalType": "string",
              "name": "variableDebtTokenSymbol",
              "type": "string"
            },
            {
              "internalType": "string",
              "name": "stableDebtTokenName",
              "type": "string"
            },
            {
              "internalType": "string",
              "name": "stableDebtTokenSymbol",
              "type": "string"
            },
            {
              "internalType": "bytes",
              "name": "params",
              "type": "bytes"
            }
          ],
          "internalType": "struct ConfiguratorInputTypes.InitReserveInput[]",
          "name": "input",
          "type": "tuple[]"
        }
      ],
      "name": "initReserves",
      "outputs": [],
      "stateMutability": "nonpayable",
      "type": "function"
    },
    {
      "inputs": [
        {
          "internalType": "contract IPoolAddressesProvider",
          "name": "provider",
          "type": "address"
        }
      ],
      "name": "initialize",
      "outputs": [],
      "stateMutability": "nonpayable",
      "type": "function"
    },
    {
      "inputs": [
        {
          "internalType": "address",
          "name": "asset",
          "type": "address"
        },
        {
          "internalType": "uint8",
          "name": "newCategoryId",
          "type": "uint8"
        }
      ],
      "name": "setAssetEModeCategory",
      "outputs": [],
      "stateMutability": "nonpayable",
      "type": "function"
    },
    {
      "inputs": [
        {
          "internalType": "address",
          "name": "asset",
          "type": "address"
        },
        {
          "internalType": "uint256",
          "name": "newBorrowCap",
          "type": "uint256"
        }
      ],
      "name": "setBorrowCap",
      "outputs": [],
      "stateMutability": "nonpayable",
      "type": "function"
    },
    {
      "inputs": [
        {
          "internalType": "address",
          "name": "asset",
          "type": "address"
        },
        {
          "internalType": "bool",
          "name": "borrowable",
          "type": "bool"
        }
      ],
      "name": "setBorrowableInIsolation",
      "outputs": [],
      "stateMutability": "nonpayable",
      "type": "function"
    },
    {
      "inputs": [
        {
          "internalType": "address",
          "name": "asset",
          "type": "address"
        },
        {
          "internalType": "uint256",
          "name": "newDebtCeiling",
          "type": "uint256"
        }
      ],
      "name": "setDebtCeiling",
      "outputs": [],
      "stateMutability": "nonpayable",
      "type": "function"
    },
    {
      "inputs": [
        {
          "internalType": "uint8",
          "name": "categoryId",
          "type": "uint8"
        },
        {
          "internalType": "uint16",
          "name": "ltv",
          "type": "uint16"
        },
        {
          "internalType": "uint16",
          "name": "liquidationThreshold",
          "type": "uint16"
        },
        {
          "internalType": "uint16",
          "name": "liquidationBonus",
          "type": "uint16"
        },
        {
          "internalType": "address",
          "name": "oracle",
          "type": "address"
        },
        {
          "internalType": "string",
          "name": "label",
          "type": "string"
        }
      ],
      "name": "setEModeCategory",
      "outputs": [],
      "stateMutability": "nonpayable",
      "type": "function"
    },
    {
      "inputs": [
        {
          "internalType": "address",
          "name": "asset",
          "type": "address"
        },
        {
          "internalType": "uint256",
          "name": "newFee",
          "type": "uint256"
        }
      ],
      "name": "setLiquidationProtocolFee",
      "outputs": [],
      "stateMutability": "nonpayable",
      "type": "function"
    },
    {
      "inputs": [
        {
          "internalType": "bool",
          "name": "paused",
          "type": "bool"
        }
      ],
      "name": "setPoolPause",
      "outputs": [],
      "stateMutability": "nonpayable",
      "type": "function"
    },
    {
      "inputs": [
        {
          "internalType": "address",
          "name": "asset",
          "type": "address"
        },
        {
          "internalType": "bool",
          "name": "active",
          "type": "bool"
        }
      ],
      "name": "setReserveActive",
      "outputs": [],
      "stateMutability": "nonpayable",
      "type": "function"
    },
    {
      "inputs": [
        {
          "internalType": "address",
          "name": "asset",
          "type": "address"
        },
        {
          "internalType": "bool",
          "name": "enabled",
          "type": "bool"
        }
      ],
      "name": "setReserveBorrowing",
      "outputs": [],
      "stateMutability": "nonpayable",
      "type": "function"
    },
    {
      "inputs": [
        {
          "internalType": "address",
          "name": "asset",
          "type": "address"
        },
        {
          "internalType": "uint256",
          "name": "newReserveFactor",
          "type": "uint256"
        }
      ],
      "name": "setReserveFactor",
      "outputs": [],
      "stateMutability": "nonpayable",
      "type": "function"
    },
    {
      "inputs": [
        {
          "internalType": "address",
          "name": "asset",
          "type": "address"
        },
        {
          "internalType": "bool",
          "name": "enabled",
          "type": "bool"
        }
      ],
      "name": "setReserveFlashLoaning",
      "outputs": [],
      "stateMutability": "nonpayable",
      "type": "function"
    },
    {
      "inputs": [
        {
          "internalType": "address",
          "name": "asset",
          "type": "address"
        },
        {
          "internalType": "bool",
          "name": "freeze",
          "type": "bool"
        }
      ],
      "name": "setReserveFreeze",
      "outputs": [],
      "stateMutability": "nonpayable",
      "type": "function"
    },
    {
      "inputs": [
        {
          "internalType": "address",
          "name": "asset",
          "type": "address"
        },
        {
          "internalType": "address",
          "name": "newRateStrategyAddress",
          "type": "address"
        }
      ],
      "name": "setReserveInterestRateStrategyAddress",
      "outputs": [],
      "stateMutability": "nonpayable",
      "type": "function"
    },
    {
      "inputs": [
        {
          "internalType": "address",
          "name": "asset",
          "type": "address"
        },
        {
          "internalType": "bool",
          "name": "paused",
          "type": "bool"
        }
      ],
      "name": "setReservePause",
      "outputs": [],
      "stateMutability": "nonpayable",
      "type": "function"
    },
    {
      "inputs": [
        {
          "internalType": "address",
          "name": "asset",
          "type": "address"
        },
        {
          "internalType": "bool",
          "name": "enabled",
          "type": "bool"
        }
      ],
      "name": "setReserveStableRateBorrowing",
      "outputs": [],
      "stateMutability": "nonpayable",
      "type": "function"
    },
    {
      "inputs": [
        {
          "internalType": "address",
          "name": "asset",
          "type": "address"
        },
        {
          "internalType": "bool",
          "name": "newSiloed",
          "type": "bool"
        }
      ],
      "name": "setSiloedBorrowing",
      "outputs": [],
      "stateMutability": "nonpayable",
      "type": "function"
    },
    {
      "inputs": [
        {
          "internalType": "address",
          "name": "asset",
          "type": "address"
        },
        {
          "internalType": "uint256",
          "name": "newSupplyCap",
          "type": "uint256"
        }
      ],
      "name": "setSupplyCap",
      "outputs": [],
      "stateMutability": "nonpayable",
      "type": "function"
    },
    {
      "inputs": [
        {
          "internalType": "address",
          "name": "asset",
          "type": "address"
        },
        {
          "internalType": "uint256",
          "name": "newUnbackedMintCap",
          "type": "uint256"
        }
      ],
      "name": "setUnbackedMintCap",
      "outputs": [],
      "stateMutability": "nonpayable",
      "type": "function"
    },
    {
      "inputs": [
        {
          "components": [
            {
              "internalType": "address",
              "name": "asset",
              "type": "address"
            },
            {
              "internalType": "address",
              "name": "treasury",
              "type": "address"
            },
            {
              "internalType": "address",
              "name": "incentivesController",
              "type": "address"
            },
            {
              "internalType": "string",
              "name": "name",
              "type": "string"
            },
            {
              "internalType": "string",
              "name": "symbol",
              "type": "string"
            },
            {
              "internalType": "address",
              "name": "implementation",
              "type": "address"
            },
            {
              "internalType": "bytes",
              "name": "params",
              "type": "bytes"
            }
          ],
          "internalType": "struct ConfiguratorInputTypes.UpdateATokenInput",
          "name": "input",
          "type": "tuple"
        }
      ],
      "name": "updateAToken",
      "outputs": [],
      "stateMutability": "nonpayable",
      "type": "function"
    },
    {
      "inputs": [
        {
          "internalType": "uint256",
          "name": "newBridgeProtocolFee",
          "type": "uint256"
        }
      ],
      "name": "updateBridgeProtocolFee",
      "outputs": [],
      "stateMutability": "nonpayable",
      "type": "function"
    },
    {
      "inputs": [
        {
          "internalType": "uint128",
          "name": "newFlashloanPremiumToProtocol",
          "type": "uint128"
        }
      ],
      "name": "updateFlashloanPremiumToProtocol",
      "outputs": [],
      "stateMutability": "nonpayable",
      "type": "function"
    },
    {
      "inputs": [
        {
          "internalType": "uint128",
          "name": "newFlashloanPremiumTotal",
          "type": "uint128"
        }
      ],
      "name": "updateFlashloanPremiumTotal",
      "outputs": [],
      "stateMutability": "nonpayable",
      "type": "function"
    },
    {
      "inputs": [
        {
          "components": [
            {
              "internalType": "address",
              "name": "asset",
              "type": "address"
            },
            {
              "internalType": "address",
              "name": "incentivesController",
              "type": "address"
            },
            {
              "internalType": "string",
              "name": "name",
              "type": "string"
            },
            {
              "internalType": "string",
              "name": "symbol",
              "type": "string"
            },
            {
              "internalType": "address",
              "name": "implementation",
              "type": "address"
            },
            {
              "internalType": "bytes",
              "name": "params",
              "type": "bytes"
            }
          ],
          "internalType": "struct ConfiguratorInputTypes.UpdateDebtTokenInput",
          "name": "input",
          "type": "tuple"
        }
      ],
      "name": "updateStableDebtToken",
      "outputs": [],
      "stateMutability": "nonpayable",
      "type": "function"
    },
    {
      "inputs": [
        {
          "components": [
            {
              "internalType": "address",
              "name": "asset",
              "type": "address"
            },
            {
              "internalType": "address",
              "name": "incentivesController",
              "type": "address"
            },
            {
              "internalType": "string",
              "name": "name",
              "type": "string"
            },
            {
              "internalType": "string",
              "name": "symbol",
              "type": "string"
            },
            {
              "internalType": "address",
              "name": "implementation",
              "type": "address"
            },
            {
              "internalType": "bytes",
              "name": "params",
              "type": "bytes"
            }
          ],
          "internalType": "struct ConfiguratorInputTypes.UpdateDebtTokenInput",
          "name": "input",
          "type": "tuple"
        }
      ],
      "name": "updateVariableDebtToken",
      "outputs": [],
      "stateMutability": "nonpayable",
      "type": "function"
    }
  ],
  "contractName": "PoolConfigurator",
  "sourceName": "contracts/protocol/pool/PoolConfigurator.sol",
  "bytecode": "0x60806040525f8055348015610012575f80fd5b50614514806100205f395ff3fe608060405234801561000f575f80fd5b50600436106101c6575f3560e01c80637af635a6116100fe578063aeb4fcc11161009e578063c4d66de81161006e578063c4d66de8146103ae578063d14a0983146103c1578063d4fe3f99146103d4578063f213ef0e146103e7575f80fd5b8063aeb4fcc114610362578063b736aaeb14610375578063bb01c37c14610388578063c19d61e41461039b575f80fd5b80638a751a60116100d95780638a751a601461031657806396e957c414610329578063a7fa83b71461033c578063ad4e64321461034f575f80fd5b80637af635a6146102d65780637c4e560b146102f05780638a49367614610303575f80fd5b806348d9fba91161016957806363c9b8601161014457806363c9b8601461028a578063682cf2641461029d5780637626cde3146102b05780637641f3d9146102c3575f80fd5b806348d9fba9146102515780634b4e675314610264578063571f03e514610277575f80fd5b80631df970bd116101a45780631df970bd1461020557806326d2cec2146102185780633036b4391461022b57806338ae0cc31461023e575f80fd5b806302fb45e6146101ca578063145f5892146101df5780631d2118f9146101f2575b5f80fd5b6101dd6101d83660046136c0565b6103fa565b005b6101dd6101ed366004613756565b6104b9565b6101dd610200366004613780565b6105f0565b6101dd6102133660046137cb565b610714565b6101dd610226366004613756565b6108f2565b6101dd6102393660046137ed565b610a59565b6101dd61024c366004613811565b610b9a565b6101dd61025f366004613811565b610cc2565b6101dd610272366004613756565b610deb565b6101dd610285366004613756565b610f52565b6101dd61029836600461383d565b61107f565b6101dd6102ab366004613811565b611117565b6101dd6102be366004613858565b61127e565b6101dd6102d136600461388f565b6112f9565b6102de600181565b60405190815260200160405180910390f35b6101dd6102fe3660046138aa565b6113e7565b6101dd6103113660046137cb565b61163a565b6101dd610324366004613811565b611807565b6101dd610337366004613811565b611972565b6101dd61034a366004613811565b611a8e565b6101dd61035d366004613858565b611bd7565b6101dd610370366004613756565b611c23565b6101dd610383366004613811565b611dc6565b6101dd6103963660046138e2565b611ef0565b6101dd6103a9366004613938565b611f3c565b6101dd6103bc36600461383d565b612390565b6101dd6103cf366004613756565b6124dd565b6101dd6103e23660046139fd565b61260a565b6101dd6103f5366004613811565b612807565b610402612923565b6035546001600160a01b03165f5b828110156104b35773__$e7da124808723ba15a66b5c7fa83f5766f$__63df59b8b28386868581811061044557610445613a30565b90506020028101906104579190613a44565b6040518363ffffffff1660e01b8152600401610474929190613ad4565b5f6040518083038186803b15801561048a575f80fd5b505af415801561049c573d5f803e3d5ffd5b5050505080806104ab90613cfd565b915050610410565b50505050565b6104c1612a9e565b60355460405163c44b11f760e01b81526001600160a01b0384811660048301525f92169063c44b11f790602401602060405180830381865afa158015610509573d5f803e3d5ffd5b505050506040513d601f19601f8201168201806040525081019061052d9190613df3565b805190915060b01c640fffffffff166105468284612c16565b60355460405163f51e435b60e01b81526001600160a01b039091169063f51e435b906105789087908690600401613e0d565b5f604051808303815f87803b15801561058f575f80fd5b505af11580156105a1573d5f803e3d5ffd5b505060408051848152602081018790526001600160a01b03881693507f09808b1fc5abde94edf02fdde393bea0d2e4795999ba31695472848638b5c29f9250015b60405180910390a250505050565b6105f8612a9e565b6035546040516335ea6a7560e01b81526001600160a01b0384811660048301525f9216906335ea6a75906024016101e060405180830381865afa158015610641573d5f803e3d5ffd5b505050506040513d601f19601f820116820180604052508101906106659190613e5c565b610160810151603554604051631d2118f960e01b81526001600160a01b038781166004830152868116602483015293945091921690631d2118f9906044015f604051808303815f87803b1580156106ba575f80fd5b505af11580156106cc573d5f803e3d5ffd5b5050604080516001600160a01b0385811682528781166020830152881693507fdb8dada53709ce4988154324196790c2e4a60c377e1256790946f83b87db3c339250016105e2565b61071c612c6e565b604080518082019091526002815261313960f01b60208201526127106001600160801b038316111561076a5760405162461bcd60e51b81526004016107619190613fca565b60405180910390fd5b506035546040805163354ce01b60e11b815290515f926001600160a01b031691636a99c0369160048083019260209291908290030181865afa1580156107b2573d5f803e3d5ffd5b505050506040513d601f19601f820116820180604052508101906107d69190613fdc565b6035546040805163074b2e4360e01b815290519293506001600160a01b039091169163bcb6e52291839163074b2e43916004808201926020929091908290030181865afa158015610829573d5f803e3d5ffd5b505050506040513d601f19601f8201168201806040525081019061084d9190613fdc565b6040516001600160e01b031960e084901b1681526001600160801b03918216600482015290851660248201526044015f604051808303815f87803b158015610893575f80fd5b505af11580156108a5573d5f803e3d5ffd5b5050604080516001600160801b038086168252861660208201527fe7e0c75e1fc2d0bd83dc85d59f085b3e763107c392fb368e85572b292f1f557693500190505b60405180910390a15050565b6108fa612a9e565b604080518082019091526002815261037360f41b60208201526127108211156109365760405162461bcd60e51b81526004016107619190613fca565b5060355460405163c44b11f760e01b81526001600160a01b0384811660048301525f92169063c44b11f790602401602060405180830381865afa15801561097f573d5f803e3d5ffd5b505050506040513d601f19601f820116820180604052508101906109a39190613df3565b805190915060981c61ffff166109b98284612d7a565b60355460405163f51e435b60e01b81526001600160a01b039091169063f51e435b906109eb9087908690600401613e0d565b5f604051808303815f87803b158015610a02575f80fd5b505af1158015610a14573d5f803e3d5ffd5b505060408051848152602081018790526001600160a01b03881693507fb5b0a963825337808b6e3154de8e98027595a5cad4219bb3a9bc55b192f4b3919250016105e2565b610a61612c6e565b604080518082019091526002815261191960f11b6020820152612710821115610a9d5760405162461bcd60e51b81526004016107619190613fca565b5060355460408051631396c83960e11b815290515f926001600160a01b03169163272d90729160048083019260209291908290030181865afa158015610ae5573d5f803e3d5ffd5b505050506040513d601f19601f82011682018060405250810190610b099190613ff7565b603554604051633036b43960e01b8152600481018590529192506001600160a01b031690633036b439906024015f604051808303815f87803b158015610b4d575f80fd5b505af1158015610b5f573d5f803e3d5ffd5b505060408051848152602081018690527f30b17cb587a89089d003457c432f73e22aeee93de425e92224ba01080260ecd993500190506108e6565b610ba2612a9e565b60355460405163c44b11f760e01b81526001600160a01b0384811660048301525f92169063c44b11f790602401602060405180830381865afa158015610bea573d5f803e3d5ffd5b505050506040513d601f19601f82011682018060405250810190610c0e9190613df3565b9050610c1a8183612dcc565b60355460405163f51e435b60e01b81526001600160a01b039091169063f51e435b90610c4c9086908590600401613e0d565b5f604051808303815f87803b158015610c63575f80fd5b505af1158015610c75573d5f803e3d5ffd5b5050604080516001600160a01b038716815285151560208201527f74adf6aaf58c08bc4f993640385e136522375ea3d1589a10d02adbb906c67d1c935001905060405180910390a1505050565b610cca612df9565b60355460405163c44b11f760e01b81526001600160a01b0384811660048301525f92169063c44b11f790602401602060405180830381865afa158015610d12573d5f803e3d5ffd5b505050506040513d601f19601f82011682018060405250810190610d369190613df3565b9050610d428183612f71565b60355460405163f51e435b60e01b81526001600160a01b039091169063f51e435b90610d749086908590600401613e0d565b5f604051808303815f87803b158015610d8b575f80fd5b505af1158015610d9d573d5f803e3d5ffd5b50505050826001600160a01b03167fe188d542a5f11925d3a3af33703cdd30a43cb3e8066a3cf68b1b57f61a5a94b583604051610dde911515815260200190565b60405180910390a2505050565b610df3612a9e565b604080518082019091526002815261363760f01b6020820152612710821115610e2f5760405162461bcd60e51b81526004016107619190613fca565b5060355460405163c44b11f760e01b81526001600160a01b0384811660048301525f92169063c44b11f790602401602060405180830381865afa158015610e78573d5f803e3d5ffd5b505050506040513d601f19601f82011682018060405250810190610e9c9190613df3565b805190915060401c61ffff16610eb28284612f9e565b60355460405163f51e435b60e01b81526001600160a01b039091169063f51e435b90610ee49087908690600401613e0d565b5f604051808303815f87803b158015610efb575f80fd5b505af1158015610f0d573d5f803e3d5ffd5b505060408051848152602081018790526001600160a01b03881693507fb46e2b82b0c2cf3d7d9dece53635e165c53e0eaa7a44f904d61a2b7174826aef9250016105e2565b610f5a612a9e565b60355460405163c44b11f760e01b81526001600160a01b0384811660048301525f92169063c44b11f790602401602060405180830381865afa158015610fa2573d5f803e3d5ffd5b505050506040513d601f19601f82011682018060405250810190610fc69190613df3565b805190915060741c640fffffffff16610fdf8284612ff5565b60355460405163f51e435b60e01b81526001600160a01b039091169063f51e435b906110119087908690600401613e0d565b5f604051808303815f87803b158015611028575f80fd5b505af115801561103a573d5f803e3d5ffd5b505060408051848152602081018790526001600160a01b03881693507f0263602682188540a2d633561c0b4453b7d8566285e99f9f6018b8ef2facef499250016105e2565b611087612c6e565b60355460405163031e4dc360e51b81526001600160a01b038381166004830152909116906363c9b860906024015f604051808303815f87803b1580156110cb575f80fd5b505af11580156110dd573d5f803e3d5ffd5b50506040516001600160a01b03841692507feeec4c06f7adad215cbdb4d2960896c83c26aedce02dde76d36fa28588d62da491505f90a250565b61111f612a9e565b60355460405163c44b11f760e01b81526001600160a01b0384811660048301525f92169063c44b11f790602401602060405180830381865afa158015611167573d5f803e3d5ffd5b505050506040513d601f19601f8201168201806040525081019061118b9190613df3565b9050816111d8578051604080518082019091526002815261070760f31b60208201529067080000000000000016156111d65760405162461bcd60e51b81526004016107619190613fca565b505b6111e2818361304d565b60355460405163f51e435b60e01b81526001600160a01b039091169063f51e435b906112149086908590600401613e0d565b5f604051808303815f87803b15801561122b575f80fd5b505af115801561123d573d5f803e3d5ffd5b50505050826001600160a01b03167f2443ba28e8d1d88d531a3d90b981816a4f3b3c7f1fd4085c6029e81d1b7a570d83604051610dde911515815260200190565b611286612c6e565b603554604051630f5b50e760e41b815273__$e7da124808723ba15a66b5c7fa83f5766f$__9163f5b50e70916112ca916001600160a01b031690859060040161400e565b5f6040518083038186803b1580156112e0575f80fd5b505af41580156112f2573d5f803e3d5ffd5b5050505050565b61130161307a565b603554604080516334651b6f60e21b815290515f926001600160a01b03169163d1946dbc91600480830192869291908290030181865afa158015611347573d5f803e3d5ffd5b505050506040513d5f823e601f3d908101601f1916820160405261136e91908101906140db565b90505f5b81518110156113e2575f6001600160a01b031682828151811061139757611397613a30565b60200260200101516001600160a01b0316146113d0576113d08282815181106113c2576113c2613a30565b602002602001015184610cc2565b806113da81613cfd565b915050611372565b505050565b6113ef612a9e565b604080518082019091526002815261032360f41b6020820152828411156114295760405162461bcd60e51b81526004016107619190613fca565b5060355460405163c44b11f760e01b81526001600160a01b0386811660048301525f92169063c44b11f790602401602060405180830381865afa158015611472573d5f803e3d5ffd5b505050506040513d601f19601f820116820180604052508101906114969190613df3565b9050821561152857604080518082019091526002815261032360f41b602082015261271083116114d95760405162461bcd60e51b81526004016107619190613fca565b506127106114e78484613186565b111560405180604001604052806002815260200161032360f41b815250906115225760405162461bcd60e51b81526004016107619190613fca565b5061156a565b604080518082019091526002815261032360f41b602082015282156115605760405162461bcd60e51b81526004016107619190613fca565b5061156a856131aa565b61157481856132df565b61157e8184613328565b6115888183613379565b60355460405163f51e435b60e01b81526001600160a01b039091169063f51e435b906115ba9088908590600401613e0d565b5f604051808303815f87803b1580156115d1575f80fd5b505af11580156115e3573d5f803e3d5ffd5b505060408051878152602081018790529081018590526001600160a01b03881692507f637febbda9275aea2e85c0ff690444c8d87eb2e8339bbede9715abcc89cb0995915060600160405180910390a25050505050565b611642612c6e565b604080518082019091526002815261313960f01b60208201526127106001600160801b03831611156116875760405162461bcd60e51b81526004016107619190613fca565b506035546040805163074b2e4360e01b815290515f926001600160a01b03169163074b2e439160048083019260209291908290030181865afa1580156116cf573d5f803e3d5ffd5b505050506040513d601f19601f820116820180604052508101906116f39190613fdc565b6035546040805163354ce01b60e11b815290519293506001600160a01b039091169163bcb6e5229185918491636a99c0369160048083019260209291908290030181865afa158015611747573d5f803e3d5ffd5b505050506040513d601f19601f8201168201806040525081019061176b9190613fdc565b6040516001600160e01b031960e085901b1681526001600160801b039283166004820152911660248201526044015f604051808303815f87803b1580156117b0575f80fd5b505af11580156117c2573d5f803e3d5ffd5b5050604080516001600160801b038086168252861660208201527f71aba182c9d0529b516de7a78bed74d49c207ef7e152f52f7ea5d8730138f64393500190506108e6565b61180f612a9e565b60355460405163c44b11f760e01b81526001600160a01b0384811660048301525f92169063c44b11f790602401602060405180830381865afa158015611857573d5f803e3d5ffd5b505050506040513d601f19601f8201168201806040525081019061187b9190613df3565b905081156118cc57805167040000000000000016151560405180604001604052806002815260200161033360f41b815250906118ca5760405162461bcd60e51b81526004016107619190613fca565b505b6118d681836133cc565b60355460405163f51e435b60e01b81526001600160a01b039091169063f51e435b906119089086908590600401613e0d565b5f604051808303815f87803b15801561191f575f80fd5b505af1158015611931573d5f803e3d5ffd5b50505050826001600160a01b03167f0b64d0941719acd363f1a6be3d8525d8ec9d71738f7445aabcd88d7939b472e783604051610dde911515815260200190565b61197a612a9e565b60355460405163c44b11f760e01b81526001600160a01b0384811660048301525f92169063c44b11f790602401602060405180830381865afa1580156119c2573d5f803e3d5ffd5b505050506040513d601f19601f820116820180604052508101906119e69190613df3565b90506119f281836133f9565b60355460405163f51e435b60e01b81526001600160a01b039091169063f51e435b90611a249086908590600401613e0d565b5f604051808303815f87803b158015611a3b575f80fd5b505af1158015611a4d573d5f803e3d5ffd5b50505050826001600160a01b03167f0c4443d258a350d27dc50c378b2ebf165e6469725f786d21b30cab16823f558783604051610dde911515815260200190565b611a96612a9e565b8015611aa557611aa582613426565b60355460405163c44b11f760e01b81526001600160a01b0384811660048301525f92169063c44b11f790602401602060405180830381865afa158015611aed573d5f803e3d5ffd5b505050506040513d601f19601f82011682018060405250810190611b119190613df3565b90505f611b28825167400000000000000016151590565b9050611b348284613536565b60355460405163f51e435b60e01b81526001600160a01b039091169063f51e435b90611b669087908690600401613e0d565b5f604051808303815f87803b158015611b7d575f80fd5b505af1158015611b8f573d5f803e3d5ffd5b505060408051841515815286151560208201526001600160a01b03881693507f842a280b07e8e502a9101f32a3b768ebaba3655556dd674f0831900861fc674b9250016105e2565b611bdf612c6e565b60355460405163b0f0935560e01b815273__$e7da124808723ba15a66b5c7fa83f5766f$__9163b0f09355916112ca916001600160a01b031690859060040161400e565b611c2b612a9e565b60355460405163c44b11f760e01b81526001600160a01b0384811660048301525f92169063c44b11f790602401602060405180830381865afa158015611c73573d5f803e3d5ffd5b505050506040513d601f19601f82011682018060405250810190611c979190613df3565b80519091505f9060d41c64ffffffffff169050805f03611cba57611cba846131aa565b611cc48284613563565b60355460405163f51e435b60e01b81526001600160a01b039091169063f51e435b90611cf69087908690600401613e0d565b5f604051808303815f87803b158015611d0d575f80fd5b505af1158015611d1f573d5f803e3d5ffd5b50505050825f03611d855760355460405163e43e88a160e01b81526001600160a01b0386811660048301529091169063e43e88a1906024015f604051808303815f87803b158015611d6e575f80fd5b505af1158015611d80573d5f803e3d5ffd5b505050505b60408051828152602081018590526001600160a01b038616917f6824a6c7fbc10d2979b1f1ccf2dd4ed0436541679a661dedb5c10bd4be83068291016105e2565b611dce612c6e565b80611ddc57611ddc826131aa565b60355460405163c44b11f760e01b81526001600160a01b0384811660048301525f92169063c44b11f790602401602060405180830381865afa158015611e24573d5f803e3d5ffd5b505050506040513d601f19601f82011682018060405250810190611e489190613df3565b9050611e5481836135be565b60355460405163f51e435b60e01b81526001600160a01b039091169063f51e435b90611e869086908590600401613e0d565b5f604051808303815f87803b158015611e9d575f80fd5b505af1158015611eaf573d5f803e3d5ffd5b50505050826001600160a01b03167fc36c7d11ba01a5869d52aa4a3781939dab851cbc9ee6e7fdcedc7d58898a3f1e83604051610dde911515815260200190565b611ef8612c6e565b60355460405163162792d560e31b815273__$e7da124808723ba15a66b5c7fa83f5766f$__9163b13c96a8916112ca916001600160a01b0316908590600401614188565b611f44612a9e565b604080518082019091526002815261323160f01b602082015261ffff8716611f7f5760405162461bcd60e51b81526004016107619190613fca565b50604080518082019091526002815261323160f01b602082015261ffff8616611fbb5760405162461bcd60e51b81526004016107619190613fca565b508461ffff168661ffff16111560405180604001604052806002815260200161323160f01b815250906120015760405162461bcd60e51b81526004016107619190613fca565b50604080518082019091526002815261323160f01b602082015261271061ffff8616116120415760405162461bcd60e51b81526004016107619190613fca565b5061271061205661ffff878116908716613186565b111560405180604001604052806002815260200161323160f01b815250906120915760405162461bcd60e51b81526004016107619190613fca565b50603554604080516334651b6f60e21b815290515f926001600160a01b03169163d1946dbc91600480830192869291908290030181865afa1580156120d8573d5f803e3d5ffd5b505050506040513d5f823e601f3d908101601f191682016040526120ff91908101906140db565b90505f5b815181101561225e5760355482515f916001600160a01b03169063c44b11f79085908590811061213557612135613a30565b60200260200101516040518263ffffffff1660e01b815260040161216891906001600160a01b0391909116815260200190565b602060405180830381865afa158015612183573d5f803e3d5ffd5b505050506040513d601f19601f820116820180604052508101906121a79190613df3565b805190915060a81c60ff168a60ff160361224b57805161ffff168961ffff161160405180604001604052806002815260200161323160f01b815250906122005760405162461bcd60e51b81526004016107619190613fca565b50805160101c61ffff168861ffff161160405180604001604052806002815260200161323160f01b815250906122495760405162461bcd60e51b81526004016107619190613fca565b505b508061225681613cfd565b915050612103565b5060355f9054906101000a90046001600160a01b03166001600160a01b031663d579ea7d896040518060a001604052808b61ffff1681526020018a61ffff1681526020018961ffff168152602001886001600160a01b0316815260200187878080601f0160208091040260200160405190810160405280939291908181526020018383808284375f9201919091525050509152506040516001600160e01b031960e085901b168152612314929190600401614275565b5f604051808303815f87803b15801561232b575f80fd5b505af115801561233d573d5f803e3d5ffd5b505050508760ff167f0acf8b4a3cace10779798a89a206a0ae73a71b63acdd3be2801d39c2ef7ab3cb88888888888860405161237e969594939291906142dc565b60405180910390a25050505050505050565b6001805460ff16806123a15750303b155b806123ac57505f5481115b61240f5760405162461bcd60e51b815260206004820152602e60248201527f436f6e747261637420696e7374616e63652068617320616c726561647920626560448201526d195b881a5b9a5d1a585b1a5e995960921b6064820152608401610761565b60015460ff1615801561242d576001805460ff1916811790555f8290555b603480546001600160a01b0319166001600160a01b0385169081179091556040805163026b1d5f60e01b8152905163026b1d5f916004808201926020929091908290030181865afa158015612484573d5f803e3d5ffd5b505050506040513d601f19601f820116820180604052508101906124a8919061431a565b603580546001600160a01b0319166001600160a01b039290921691909117905580156113e2576001805460ff19169055505050565b6124e5612a9e565b60355460405163c44b11f760e01b81526001600160a01b0384811660048301525f92169063c44b11f790602401602060405180830381865afa15801561252d573d5f803e3d5ffd5b505050506040513d601f19601f820116820180604052508101906125519190613df3565b805190915060501c640fffffffff1661256a82846135eb565b60355460405163f51e435b60e01b81526001600160a01b039091169063f51e435b9061259c9087908690600401613e0d565b5f604051808303815f87803b1580156125b3575f80fd5b505af11580156125c5573d5f803e3d5ffd5b505060408051848152602081018790526001600160a01b03881693507fc51aca575985d521c5072ad11549bad77013bb786d57f30f94b40ed8f8dc9bc49250016105e2565b612612612a9e565b60355460405163c44b11f760e01b81526001600160a01b0384811660048301525f92169063c44b11f790602401602060405180830381865afa15801561265a573d5f803e3d5ffd5b505050506040513d601f19601f8201168201806040525081019061267e9190613df3565b905060ff82161561274a57603554604051636c6f6ae160e01b815260ff841660048201525f916001600160a01b031690636c6f6ae1906024015f60405180830381865afa1580156126d1573d5f803e3d5ffd5b505050506040513d5f823e601f3d908101601f191682016040526126f89190810190614335565b825190915060101c61ffff16816020015161ffff161160405180604001604052806002815260200161313760f01b815250906127475760405162461bcd60e51b81526004016107619190613fca565b50505b80515f9060a81c60ff1690506127638260ff8516613643565b60355460405163f51e435b60e01b81526001600160a01b039091169063f51e435b906127959087908690600401613e0d565b5f604051808303815f87803b1580156127ac575f80fd5b505af11580156127be573d5f803e3d5ffd5b50506040805160ff8086168252871660208201526001600160a01b03881693507f5bb69795b6a2ea222d73a5f8939c23471a1f85a99c7ca43c207f1b71f10c62649250016105e2565b61280f612a9e565b60355460405163c44b11f760e01b81526001600160a01b0384811660048301525f92169063c44b11f790602401602060405180830381865afa158015612857573d5f803e3d5ffd5b505050506040513d601f19601f8201168201806040525081019061287b9190613df3565b90506128878183613693565b60355460405163f51e435b60e01b81526001600160a01b039091169063f51e435b906128b99086908590600401613e0d565b5f604051808303815f87803b1580156128d0575f80fd5b505af11580156128e2573d5f803e3d5ffd5b50505050826001600160a01b03167fc8ff3cc5b0fddaa3e6ebbbd7438f43393e4ea30e88b80ad016c1bc094655034d83604051610dde911515815260200190565b6034546040805163383e6b8b60e11b815290515f926001600160a01b03169163707cd7169160048083019260209291908290030181865afa15801561296a573d5f803e3d5ffd5b505050506040513d601f19601f8201168201806040525081019061298e919061431a565b604051629f719760e51b81523360048201529091506001600160a01b038216906313ee32e090602401602060405180830381865afa1580156129d2573d5f803e3d5ffd5b505050506040513d601f19601f820116820180604052508101906129f6919061443b565b80612a625750604051637be53ca160e01b81523360048201526001600160a01b03821690637be53ca190602401602060405180830381865afa158015612a3e573d5f803e3d5ffd5b505050506040513d601f19601f82011682018060405250810190612a62919061443b565b604051806040016040528060018152602001603560f81b81525090612a9a5760405162461bcd60e51b81526004016107619190613fca565b5050565b6034546040805163383e6b8b60e11b815290515f926001600160a01b03169163707cd7169160048083019260209291908290030181865afa158015612ae5573d5f803e3d5ffd5b505050506040513d601f19601f82011682018060405250810190612b09919061431a565b60405163674b5e4d60e01b81523360048201529091506001600160a01b0382169063674b5e4d90602401602060405180830381865afa158015612b4e573d5f803e3d5ffd5b505050506040513d601f19601f82011682018060405250810190612b72919061443b565b80612bde5750604051637be53ca160e01b81523360048201526001600160a01b03821690637be53ca190602401602060405180830381865afa158015612bba573d5f803e3d5ffd5b505050506040513d601f19601f82011682018060405250810190612bde919061443b565b604051806040016040528060018152602001600d60fa1b81525090612a9a5760405162461bcd60e51b81526004016107619190613fca565b6040805180820190915260028152611b9960f11b6020820152640fffffffff821115612c555760405162461bcd60e51b81526004016107619190613fca565b508151640fffffffff60b01b191660b09190911b179052565b6034546040805163383e6b8b60e11b815290515f926001600160a01b03169163707cd7169160048083019260209291908290030181865afa158015612cb5573d5f803e3d5ffd5b505050506040513d601f19601f82011682018060405250810190612cd9919061431a565b604051637be53ca160e01b81523360048201529091506001600160a01b03821690637be53ca190602401602060405180830381865afa158015612d1e573d5f803e3d5ffd5b505050506040513d601f19601f82011682018060405250810190612d42919061443b565b604051806040016040528060018152602001603160f81b81525090612a9a5760405162461bcd60e51b81526004016107619190613fca565b604080518082019091526002815261037360f41b602082015261ffff821115612db65760405162461bcd60e51b81526004016107619190613fca565b50815161ffff60981b191660989190911b179052565b603d81612dd9575f612ddc565b60015b8351672000000000000000191660ff9190911690911b1790915250565b6034546040805163383e6b8b60e11b815290515f926001600160a01b03169163707cd7169160048083019260209291908290030181865afa158015612e40573d5f803e3d5ffd5b505050506040513d601f19601f82011682018060405250810190612e64919061431a565b604051637be53ca160e01b81523360048201529091506001600160a01b03821690637be53ca190602401602060405180830381865afa158015612ea9573d5f803e3d5ffd5b505050506040513d601f19601f82011682018060405250810190612ecd919061443b565b80612f395750604051631280795b60e11b81523360048201526001600160a01b03821690632500f2b690602401602060405180830381865afa158015612f15573d5f803e3d5ffd5b505050506040513d601f19601f82011682018060405250810190612f39919061443b565b604051806040016040528060018152602001603360f81b81525090612a9a5760405162461bcd60e51b81526004016107619190613fca565b603c81612f7e575f612f81565b60015b8351671000000000000000191660ff9190911690911b1790915250565b604080518082019091526002815261363760f01b602082015261ffff821115612fda5760405162461bcd60e51b81526004016107619190613fca565b50815169ffff0000000000000000191660409190911b179052565b604080518082019091526002815261363960f01b6020820152640fffffffff8211156130345760405162461bcd60e51b81526004016107619190613fca565b508151640fffffffff60741b191660749190911b179052565b603a8161305a575f61305d565b60015b8351670400000000000000191660ff9190911690911b1790915250565b6034546040805163383e6b8b60e11b815290515f926001600160a01b03169163707cd7169160048083019260209291908290030181865afa1580156130c1573d5f803e3d5ffd5b505050506040513d601f19601f820116820180604052508101906130e5919061431a565b604051631280795b60e11b81523360048201529091506001600160a01b03821690632500f2b690602401602060405180830381865afa15801561312a573d5f803e3d5ffd5b505050506040513d601f19601f8201168201806040525081019061314e919061443b565b604051806040016040528060018152602001601960f91b81525090612a9a5760405162461bcd60e51b81526004016107619190613fca565b5f8115611388198390048411151761319c575f80fd5b506127109102611388010490565b5f8060345f9054906101000a90046001600160a01b03166001600160a01b031663e860accb6040518163ffffffff1660e01b8152600401602060405180830381865afa1580156131fc573d5f803e3d5ffd5b505050506040513d601f19601f82011682018060405250810190613220919061431a565b6040516335ea6a7560e01b81526001600160a01b03858116600483015291909116906335ea6a759060240161018060405180830381865afa158015613267573d5f803e3d5ffd5b505050506040513d601f19601f8201168201806040525081019061328b9190614456565b5050505050505050509250925050805f1480156132a6575081155b60405180604001604052806002815260200161062760f31b815250906104b35760405162461bcd60e51b81526004016107619190613fca565b604080518082019091526002815261363360f01b602082015261ffff82111561331b5760405162461bcd60e51b81526004016107619190613fca565b50815161ffff1916179052565b6040805180820190915260028152610d8d60f21b602082015261ffff8211156133645760405162461bcd60e51b81526004016107619190613fca565b50815163ffff0000191660109190911b179052565b604080518082019091526002815261363560f01b602082015261ffff8211156133b55760405162461bcd60e51b81526004016107619190613fca565b50815165ffff00000000191660209190911b179052565b603b816133d9575f6133dc565b60015b8351670800000000000000191660ff9190911690911b1790915250565b603981613406575f613409565b60015b8351670200000000000000191660ff9190911690911b1790915250565b6034546040805163e860accb60e01b815290515f926001600160a01b03169163e860accb9160048083019260209291908290030181865afa15801561346d573d5f803e3d5ffd5b505050506040513d601f19601f82011682018060405250810190613491919061431a565b604051634d44ac4f60e01b81526001600160a01b0384811660048301529190911690634d44ac4f90602401602060405180830381865afa1580156134d7573d5f803e3d5ffd5b505050506040513d601f19601f820116820180604052508101906134fb9190613ff7565b604080518082019091526002815261039360f41b602082015290915081156113e25760405162461bcd60e51b81526004016107619190613fca565b603e81613543575f613546565b60015b8351674000000000000000191660ff9190911690911b1790915250565b604080518082019091526002815261373360f01b602082015264ffffffffff8211156135a25760405162461bcd60e51b81526004016107619190613fca565b5081516001650f000000000160d41b031660d49190911b179052565b6038816135cb575f6135ce565b60015b8351670100000000000000191660ff9190911690911b1790915250565b60408051808201909152600281526106c760f31b6020820152640fffffffff82111561362a5760405162461bcd60e51b81526004016107619190613fca565b508151640fffffffff60501b191660509190911b179052565b604080518082019091526002815261373160f01b602082015260ff82111561367e5760405162461bcd60e51b81526004016107619190613fca565b50815160ff60a81b191660a89190911b179052565b603f816136a0575f6136a3565b60015b8351678000000000000000191660ff9190911690911b1790915250565b5f80602083850312156136d1575f80fd5b823567ffffffffffffffff808211156136e8575f80fd5b818501915085601f8301126136fb575f80fd5b813581811115613709575f80fd5b8660208260051b850101111561371d575f80fd5b60209290920196919550909350505050565b6001600160a01b0381168114613743575f80fd5b50565b80356137518161372f565b919050565b5f8060408385031215613767575f80fd5b82356137728161372f565b946020939093013593505050565b5f8060408385031215613791575f80fd5b823561379c8161372f565b915060208301356137ac8161372f565b809150509250929050565b6001600160801b0381168114613743575f80fd5b5f602082840312156137db575f80fd5b81356137e6816137b7565b9392505050565b5f602082840312156137fd575f80fd5b5035919050565b8015158114613743575f80fd5b5f8060408385031215613822575f80fd5b823561382d8161372f565b915060208301356137ac81613804565b5f6020828403121561384d575f80fd5b81356137e68161372f565b5f60208284031215613868575f80fd5b813567ffffffffffffffff81111561387e575f80fd5b820160c081850312156137e6575f80fd5b5f6020828403121561389f575f80fd5b81356137e681613804565b5f805f80608085870312156138bd575f80fd5b84356138c88161372f565b966020860135965060408601359560600135945092505050565b5f602082840312156138f2575f80fd5b813567ffffffffffffffff811115613908575f80fd5b820160e081850312156137e6575f80fd5b803560ff81168114613751575f80fd5b61ffff81168114613743575f80fd5b5f805f805f805f60c0888a03121561394e575f80fd5b61395788613919565b9650602088013561396781613929565b9550604088013561397781613929565b9450606088013561398781613929565b935060808801356139978161372f565b925060a088013567ffffffffffffffff808211156139b3575f80fd5b818a0191508a601f8301126139c6575f80fd5b8135818111156139d4575f80fd5b8b60208285010111156139e5575f80fd5b60208301945080935050505092959891949750929550565b5f8060408385031215613a0e575f80fd5b8235613a198161372f565b9150613a2760208401613919565b90509250929050565b634e487b7160e01b5f52603260045260245ffd5b5f82356101de19833603018112613a59575f80fd5b9190910192915050565b5f808335601e19843603018112613a78575f80fd5b830160208101925035905067ffffffffffffffff811115613a97575f80fd5b803603821315613aa5575f80fd5b9250929050565b81835281816020850137505f828201602090810191909152601f909101601f19169091010190565b6001600160a01b0383168152604060208201819052613b05908201613af884613746565b6001600160a01b03169052565b5f613b1260208401613746565b6001600160a01b03166060830152613b2c60408401613746565b6001600160a01b03166080830152613b4660608401613919565b60ff1660a0830152613b5a60808401613746565b6001600160a01b031660c0830152613b7460a08401613746565b6001600160a01b031660e0830152613b8e60c08401613746565b610100613ba5818501836001600160a01b03169052565b613bb160e08601613746565b9150610120613bca818601846001600160a01b03169052565b613bd682870187613a63565b935091506101e06101408181880152613bf461022088018686613aac565b9450613c0283890189613a63565b94509250603f196101608189880301818a0152613c20878787613aac565b9650613c2e838b018b613a63565b9650945061018092508189880301838a0152613c4b878787613aac565b9650613c59818b018b613a63565b96509450506101a08189880301818a0152613c75878787613aac565b9650613c83838b018b613a63565b965094506101c092508189880301838a0152613ca0878787613aac565b9650613cae818b018b613a63565b9650945050808887030183890152613cc7868686613aac565b9550613cd5828a018a613a63565b955093508088870301610200890152505050613cf2838383613aac565b979650505050505050565b5f60018201613d1a57634e487b7160e01b5f52601160045260245ffd5b5060010190565b634e487b7160e01b5f52604160045260245ffd5b6040516101e0810167ffffffffffffffff81118282101715613d5957613d59613d21565b60405290565b60405160a0810167ffffffffffffffff81118282101715613d5957613d59613d21565b604051601f8201601f1916810167ffffffffffffffff81118282101715613dab57613dab613d21565b604052919050565b5f60208284031215613dc3575f80fd5b6040516020810181811067ffffffffffffffff82111715613de657613de6613d21565b6040529151825250919050565b5f60208284031215613e03575f80fd5b6137e68383613db3565b6001600160a01b0392909216825251602082015260400190565b8051613751816137b7565b805164ffffffffff81168114613751575f80fd5b805161375181613929565b80516137518161372f565b5f6101e08284031215613e6d575f80fd5b613e75613d35565b613e7f8484613db3565b8152613e8d60208401613e27565b6020820152613e9e60408401613e27565b6040820152613eaf60608401613e27565b6060820152613ec060808401613e27565b6080820152613ed160a08401613e27565b60a0820152613ee260c08401613e32565b60c0820152613ef360e08401613e46565b60e0820152610100613f06818501613e51565b90820152610120613f18848201613e51565b90820152610140613f2a848201613e51565b90820152610160613f3c848201613e51565b90820152610180613f4e848201613e27565b908201526101a0613f60848201613e27565b908201526101c0613f72848201613e27565b908201529392505050565b5f5b83811015613f97578181015183820152602001613f7f565b50505f910152565b5f8151808452613fb6816020860160208601613f7d565b601f01601f19169290920160200192915050565b602081525f6137e66020830184613f9f565b5f60208284031215613fec575f80fd5b81516137e6816137b7565b5f60208284031215614007575f80fd5b5051919050565b6001600160a01b038381168252604060208301525f90833561402f8161372f565b8116604084015260208401356140448161372f565b1660608301526140576040840184613a63565b60c0608085015261406d61010085018284613aac565b91505061407d6060850185613a63565b603f19808685030160a0870152614095848385613aac565b93506140a360808801613746565b6001600160a01b03811660c088015292506140c160a0880188613a63565b93509150808685030160e087015250613cf2838383613aac565b5f60208083850312156140ec575f80fd5b825167ffffffffffffffff80821115614103575f80fd5b818501915085601f830112614116575f80fd5b81518181111561412857614128613d21565b8060051b9150614139848301613d82565b8181529183018401918481019088841115614152575f80fd5b938501935b8385101561417c578451925061416c8361372f565b8282529385019390850190614157565b98975050505050505050565b6001600160a01b038381168252604060208301525f9083356141a98161372f565b1660408301526141bb60208401613746565b6001600160a01b031660608301526141d560408401613746565b6001600160a01b031660808301526141f06060840184613a63565b60e060a085015261420661012085018284613aac565b9150506142166080850185613a63565b603f19808685030160c087015261422e848385613aac565b935061423c60a08801613746565b6001600160a01b03811660e0880152925061425a60c0880188613a63565b93509150808685030161010087015250613cf2838383613aac565b60ff83168152604060208201525f61ffff8084511660408401528060208501511660608401528060408501511660808401525060018060a01b0360608401511660a0830152608083015160a060c08401526142d360e0840182613f9f565b95945050505050565b61ffff87811682528681166020830152851660408201526001600160a01b038416606082015260a0608082018190525f9061417c9083018486613aac565b5f6020828403121561432a575f80fd5b81516137e68161372f565b5f6020808385031215614346575f80fd5b825167ffffffffffffffff8082111561435d575f80fd5b9084019060a08287031215614370575f80fd5b614378613d5f565b825161438381613929565b81528284015161439281613929565b8185015260408301516143a481613929565b604082015260608301516143b78161372f565b60608201526080830151828111156143cd575f80fd5b80840193505086601f8401126143e1575f80fd5b8251828111156143f3576143f3613d21565b614405601f8201601f19168601613d82565b9250808352878582860101111561441a575f80fd5b61442981868501878701613f7d565b50608081019190915295945050505050565b5f6020828403121561444b575f80fd5b81516137e681613804565b5f805f805f805f805f805f806101808d8f031215614472575f80fd5b8c519b5060208d01519a5060408d0151995060608d0151985060808d0151975060a08d0151965060c08d0151955060e08d015194506101008d015193506101208d015192506101408d015191506144cc6101608e01613e32565b90509295989b509295989b509295989b56fea264697066735822122073b8c1c2d56c19bfee98476f815028a93fa6a7481886a0e6c16d69ced57de91a64736f6c63430008140033",
  "linkReferences": {
    "project/contracts/protocol/libraries/logic/ConfiguratorLogic.sol": {
      "ConfiguratorLogic": [
        {
          "length": 20,
          "start": 1082
        },
        {
          "length": 20,
          "start": 4792
        },
        {
          "length": 20,
          "start": 7185
        },
        {
          "length": 20,
          "start": 7978
        }
      ]
    }
  },
  "deployedLinkReferences": {
    "project/contracts/protocol/libraries/logic/ConfiguratorLogic.sol": {
      "ConfiguratorLogic": [
        {
          "length": 20,
          "start": 1050
        },
        {
          "length": 20,
          "start": 4760
        },
        {
          "length": 20,
          "start": 7153
        },
        {
          "length": 20,
          "start": 7946
        }
      ]
    }
  },
  "immutableReferences": {},
  "inputSourceName": "project/contracts/protocol/pool/PoolConfigurator.sol",
  "devdoc": {
    "author": "Aave",
    "details": "Implements the configuration methods for the Aave protocol",
    "events": {
      "ATokenUpgraded(address,address,address)": {
        "details": "Emitted when an aToken implementation is upgraded.",
        "params": {
          "asset": "The address of the underlying asset of the reserve",
          "implementation": "The new aToken implementation",
          "proxy": "The aToken proxy address"
        }
      },
      "BorrowCapChanged(address,uint256,uint256)": {
        "details": "Emitted when the borrow cap of a reserve is updated.",
        "params": {
          "asset": "The address of the underlying asset of the reserve",
          "newBorrowCap": "The new borrow cap",
          "oldBorrowCap": "The old borrow cap"
        }
      },
      "BorrowableInIsolationChanged(address,bool)": {
        "details": "Emitted when the reserve is set as borrowable/non borrowable in isolation mode.",
        "params": {
          "asset": "The address of the underlying asset of the reserve",
          "borrowable": "True if the reserve is borrowable in isolation, false otherwise"
        }
      },
      "BridgeProtocolFeeUpdated(uint256,uint256)": {
        "details": "Emitted when the bridge protocol fee is updated.",
        "params": {
          "newBridgeProtocolFee": "The new protocol fee, expressed in bps",
          "oldBridgeProtocolFee": "The old protocol fee, expressed in bps"
        }
      },
      "CollateralConfigurationChanged(address,uint256,uint256,uint256)": {
        "details": "Emitted when the collateralization risk parameters for the specified asset are updated.",
        "params": {
          "asset": "The address of the underlying asset of the reserve",
          "liquidationBonus": "The bonus liquidators receive to liquidate this asset",
          "liquidationThreshold": "The threshold at which loans using this asset as collateral will be considered undercollateralized",
          "ltv": "The loan to value of the asset when used as collateral"
        }
      },
      "DebtCeilingChanged(address,uint256,uint256)": {
        "details": "Emitted when the debt ceiling of an asset is set.",
        "params": {
          "asset": "The address of the underlying asset of the reserve",
          "newDebtCeiling": "The new debt ceiling",
          "oldDebtCeiling": "The old debt ceiling"
        }
      },
      "EModeAssetCategoryChanged(address,uint8,uint8)": {
        "details": "Emitted when the category of an asset in eMode is changed.",
        "params": {
          "asset": "The address of the underlying asset of the reserve",
          "newCategoryId": "The new eMode asset category",
          "oldCategoryId": "The old eMode asset category"
        }
      },
      "EModeCategoryAdded(uint8,uint256,uint256,uint256,address,string)": {
        "details": "Emitted when a new eMode category is added.",
        "params": {
          "categoryId": "The new eMode category id",
          "label": "A human readable identifier for the category",
          "liquidationBonus": "The liquidationBonus for the asset category in eMode",
          "liquidationThreshold": "The liquidationThreshold for the asset category in eMode",
          "ltv": "The ltv for the asset category in eMode",
          "oracle": "The optional address of the price oracle specific for this category"
        }
      },
      "FlashloanPremiumToProtocolUpdated(uint128,uint128)": {
        "details": "Emitted when the part of the premium that goes to protocol is updated.",
        "params": {
          "newFlashloanPremiumToProtocol": "The new premium, expressed in bps",
          "oldFlashloanPremiumToProtocol": "The old premium, expressed in bps"
        }
      },
      "FlashloanPremiumTotalUpdated(uint128,uint128)": {
        "details": "Emitted when the total premium on flashloans is updated.",
        "params": {
          "newFlashloanPremiumTotal": "The new premium, expressed in bps",
          "oldFlashloanPremiumTotal": "The old premium, expressed in bps"
        }
      },
      "LiquidationProtocolFeeChanged(address,uint256,uint256)": {
        "details": "Emitted when the liquidation protocol fee of a reserve is updated.",
        "params": {
          "asset": "The address of the underlying asset of the reserve",
          "newFee": "The new liquidation protocol fee, expressed in bps",
          "oldFee": "The old liquidation protocol fee, expressed in bps"
        }
      },
      "ReserveActive(address,bool)": {
        "details": "Emitted when a reserve is activated or deactivated",
        "params": {
          "active": "True if reserve is active, false otherwise",
          "asset": "The address of the underlying asset of the reserve"
        }
      },
      "ReserveBorrowing(address,bool)": {
        "details": "Emitted when borrowing is enabled or disabled on a reserve.",
        "params": {
          "asset": "The address of the underlying asset of the reserve",
          "enabled": "True if borrowing is enabled, false otherwise"
        }
      },
      "ReserveDropped(address)": {
        "details": "Emitted when a reserve is dropped.",
        "params": {
          "asset": "The address of the underlying asset of the reserve"
        }
      },
      "ReserveFactorChanged(address,uint256,uint256)": {
        "details": "Emitted when a reserve factor is updated.",
        "params": {
          "asset": "The address of the underlying asset of the reserve",
          "newReserveFactor": "The new reserve factor, expressed in bps",
          "oldReserveFactor": "The old reserve factor, expressed in bps"
        }
      },
      "ReserveFlashLoaning(address,bool)": {
        "details": "Emitted when flashloans are enabled or disabled on a reserve.",
        "params": {
          "asset": "The address of the underlying asset of the reserve",
          "enabled": "True if flashloans are enabled, false otherwise"
        }
      },
      "ReserveFrozen(address,bool)": {
        "details": "Emitted when a reserve is frozen or unfrozen",
        "params": {
          "asset": "The address of the underlying asset of the reserve",
          "frozen": "True if reserve is frozen, false otherwise"
        }
      },
      "ReserveInitialized(address,address,address,address,address)": {
        "details": "Emitted when a reserve is initialized.",
        "params": {
          "aToken": "The address of the associated aToken contract",
          "asset": "The address of the underlying asset of the reserve",
          "interestRateStrategyAddress": "The address of the interest rate strategy for the reserve",
          "stableDebtToken": "The address of the associated stable rate debt token",
          "variableDebtToken": "The address of the associated variable rate debt token"
        }
      },
      "ReserveInterestRateStrategyChanged(address,address,address)": {
        "details": "Emitted when a reserve interest strategy contract is updated.",
        "params": {
          "asset": "The address of the underlying asset of the reserve",
          "newStrategy": "The address of the new interest strategy contract",
          "oldStrategy": "The address of the old interest strategy contract"
        }
      },
      "ReservePaused(address,bool)": {
        "details": "Emitted when a reserve is paused or unpaused",
        "params": {
          "asset": "The address of the underlying asset of the reserve",
          "paused": "True if reserve is paused, false otherwise"
        }
      },
      "ReserveStableRateBorrowing(address,bool)": {
        "details": "Emitted when stable rate borrowing is enabled or disabled on a reserve",
        "params": {
          "asset": "The address of the underlying asset of the reserve",
          "enabled": "True if stable rate borrowing is enabled, false otherwise"
        }
      },
      "SiloedBorrowingChanged(address,bool,bool)": {
        "details": "Emitted when the the siloed borrowing state for an asset is changed.",
        "params": {
          "asset": "The address of the underlying asset of the reserve",
          "newState": "The new siloed borrowing state",
          "oldState": "The old siloed borrowing state"
        }
      },
      "StableDebtTokenUpgraded(address,address,address)": {
        "details": "Emitted when the implementation of a stable debt token is upgraded.",
        "params": {
          "asset": "The address of the underlying asset of the reserve",
          "implementation": "The new aToken implementation",
          "proxy": "The stable debt token proxy address"
        }
      },
      "SupplyCapChanged(address,uint256,uint256)": {
        "details": "Emitted when the supply cap of a reserve is updated.",
        "params": {
          "asset": "The address of the underlying asset of the reserve",
          "newSupplyCap": "The new supply cap",
          "oldSupplyCap": "The old supply cap"
        }
      },
      "UnbackedMintCapChanged(address,uint256,uint256)": {
        "details": "Emitted when the unbacked mint cap of a reserve is updated.",
        "params": {
          "asset": "The address of the underlying asset of the reserve",
          "newUnbackedMintCap": "The new unbacked mint cap",
          "oldUnbackedMintCap": "The old unbacked mint cap"
        }
      },
      "VariableDebtTokenUpgraded(address,address,address)": {
        "details": "Emitted when the implementation of a variable debt token is upgraded.",
        "params": {
          "asset": "The address of the underlying asset of the reserve",
          "implementation": "The new aToken implementation",
          "proxy": "The variable debt token proxy address"
        }
      }
    },
    "kind": "dev",
    "methods": {
      "configureReserveAsCollateral(address,uint256,uint256,uint256)": {
        "details": "All the values are expressed in bps. A value of 10000, results in 100.00%The `liquidationBonus` is always above 100%. A value of 105% means the liquidator will receive a 5% bonus",
        "params": {
          "asset": "The address of the underlying asset of the reserve",
          "liquidationBonus": "The bonus liquidators receive to liquidate this asset",
          "liquidationThreshold": "The threshold at which loans using this asset as collateral will be considered undercollateralized",
          "ltv": "The loan to value of the asset when used as collateral"
        }
      },
      "dropReserve(address)": {
        "params": {
          "asset": "The address of the reserve to drop"
        }
      },
      "initReserves((address,address,address,uint8,address,address,address,address,string,string,string,string,string,string,bytes)[])": {
        "params": {
          "input": "The array of initialization parameters"
        }
      },
      "setAssetEModeCategory(address,uint8)": {
        "params": {
          "asset": "The address of the underlying asset of the reserve",
          "newCategoryId": "The new category id of the asset"
        }
      },
      "setBorrowCap(address,uint256)": {
        "params": {
          "asset": "The address of the underlying asset of the reserve",
          "newBorrowCap": "The new borrow cap of the reserve"
        }
      },
      "setBorrowableInIsolation(address,bool)": {
        "details": "When this flag is set to true, the asset will be borrowable against isolated collaterals and the borrowed amount will be accumulated in the isolated collateral's total debt exposureOnly assets of the same family (e.g. USD stablecoins) should be borrowable in isolation mode to keep consistency in the debt ceiling calculations",
        "params": {
          "asset": "The address of the underlying asset of the reserve",
          "borrowable": "True if the asset should be borrowable in isolation, false otherwise"
        }
      },
      "setDebtCeiling(address,uint256)": {
        "params": {
          "newDebtCeiling": "The new debt ceiling"
        }
      },
      "setEModeCategory(uint8,uint16,uint16,uint16,address,string)": {
        "details": "If zero is provided as oracle address, the default asset oracles will be used to compute the overall debt and overcollateralization of the users using this category.The new ltv and liquidation threshold must be greater than the base ltvs and liquidation thresholds of all assets within the eMode category",
        "params": {
          "categoryId": "The id of the category to be configured",
          "label": "A label identifying the category",
          "liquidationBonus": "The liquidation bonus associated with the category",
          "liquidationThreshold": "The liquidation threshold associated with the category",
          "ltv": "The ltv associated with the category",
          "oracle": "The oracle associated with the category"
        }
      },
      "setLiquidationProtocolFee(address,uint256)": {
        "params": {
          "asset": "The address of the underlying asset of the reserve",
          "newFee": "The new liquidation protocol fee of the reserve, expressed in bps"
        }
      },
      "setPoolPause(bool)": {
        "params": {
          "paused": "True if protocol needs to be paused, false otherwise"
        }
      },
      "setReserveActive(address,bool)": {
        "params": {
          "active": "True if the reserve needs to be active, false otherwise",
          "asset": "The address of the underlying asset of the reserve"
        }
      },
      "setReserveBorrowing(address,bool)": {
        "details": "Can only be disabled (set to false) if stable borrowing is disabled",
        "params": {
          "asset": "The address of the underlying asset of the reserve",
          "enabled": "True if borrowing needs to be enabled, false otherwise"
        }
      },
      "setReserveFactor(address,uint256)": {
        "params": {
          "asset": "The address of the underlying asset of the reserve",
          "newReserveFactor": "The new reserve factor of the reserve"
        }
      },
      "setReserveFlashLoaning(address,bool)": {
        "params": {
          "asset": "The address of the underlying asset of the reserve",
          "enabled": "True if flashloans need to be enabled, false otherwise"
        }
      },
      "setReserveFreeze(address,bool)": {
        "params": {
          "asset": "The address of the underlying asset of the reserve",
          "freeze": "True if the reserve needs to be frozen, false otherwise"
        }
      },
      "setReserveInterestRateStrategyAddress(address,address)": {
        "params": {
          "asset": "The address of the underlying asset of the reserve",
          "newRateStrategyAddress": "The address of the new interest strategy contract"
        }
      },
      "setReservePause(address,bool)": {
        "params": {
          "asset": "The address of the underlying asset of the reserve",
          "paused": "True if pausing the reserve, false if unpausing"
        }
      },
      "setReserveStableRateBorrowing(address,bool)": {
        "details": "Can only be enabled (set to true) if borrowing is enabled",
        "params": {
          "asset": "The address of the underlying asset of the reserve",
          "enabled": "True if stable rate borrowing needs to be enabled, false otherwise"
        }
      },
      "setSiloedBorrowing(address,bool)": {
        "params": {
          "siloed": "The new siloed borrowing state"
        }
      },
      "setSupplyCap(address,uint256)": {
        "params": {
          "asset": "The address of the underlying asset of the reserve",
          "newSupplyCap": "The new supply cap of the reserve"
        }
      },
      "setUnbackedMintCap(address,uint256)": {
        "params": {
          "asset": "The address of the underlying asset of the reserve",
          "newUnbackedMintCap": "The new unbacked mint cap of the reserve"
        }
      },
      "updateAToken((address,address,address,string,string,address,bytes))": {
        "details": "Updates the aToken implementation for the reserve.",
        "params": {
          "input": "The aToken update parameters"
        }
      },
      "updateBridgeProtocolFee(uint256)": {
        "params": {
          "newBridgeProtocolFee": "The part of the fee sent to the protocol treasury, expressed in bps"
        }
      },
      "updateFlashloanPremiumToProtocol(uint128)": {
        "details": "Expressed in bpsThe premium to protocol is calculated on the total flashloan premium",
        "params": {
          "newFlashloanPremiumToProtocol": "The part of the flashloan premium sent to the protocol treasury"
        }
      },
      "updateFlashloanPremiumTotal(uint128)": {
        "details": "Expressed in bpsThe premium is calculated on the total amount borrowed",
        "params": {
          "newFlashloanPremiumTotal": "The total flashloan premium"
        }
      },
      "updateStableDebtToken((address,address,string,string,address,bytes))": {
        "params": {
          "input": "The stableDebtToken update parameters"
        }
      },
      "updateVariableDebtToken((address,address,string,string,address,bytes))": {
        "params": {
          "input": "The variableDebtToken update parameters"
        }
      }
    },
    "title": "PoolConfigurator",
    "version": 1
  },
  "evm": {
    "gasEstimates": {
      "creation": {
        "codeDepositCost": "3536800",
        "executionCost": "8969",
        "totalCost": "3545769"
      },
      "external": {
        "CONFIGURATOR_REVISION()": "228",
        "configureReserveAsCollateral(address,uint256,uint256,uint256)": "infinite",
        "dropReserve(address)": "infinite",
        "initReserves((address,address,address,uint8,address,address,address,address,string,string,string,string,string,string,bytes)[])": "infinite",
        "initialize(address)": "infinite",
        "setAssetEModeCategory(address,uint8)": "infinite",
        "setBorrowCap(address,uint256)": "infinite",
        "setBorrowableInIsolation(address,bool)": "infinite",
        "setDebtCeiling(address,uint256)": "infinite",
        "setEModeCategory(uint8,uint16,uint16,uint16,address,string)": "infinite",
        "setLiquidationProtocolFee(address,uint256)": "infinite",
        "setPoolPause(bool)": "infinite",
        "setReserveActive(address,bool)": "infinite",
        "setReserveBorrowing(address,bool)": "infinite",
        "setReserveFactor(address,uint256)": "infinite",
        "setReserveFlashLoaning(address,bool)": "infinite",
        "setReserveFreeze(address,bool)": "infinite",
        "setReserveInterestRateStrategyAddress(address,address)": "infinite",
        "setReservePause(address,bool)": "infinite",
        "setReserveStableRateBorrowing(address,bool)": "infinite",
        "setSiloedBorrowing(address,bool)": "infinite",
        "setSupplyCap(address,uint256)": "infinite",
        "setUnbackedMintCap(address,uint256)": "infinite",
        "updateAToken((address,address,address,string,string,address,bytes))": "infinite",
        "updateBridgeProtocolFee(uint256)": "infinite",
        "updateFlashloanPremiumToProtocol(uint128)": "infinite",
        "updateFlashloanPremiumTotal(uint128)": "infinite",
        "updateStableDebtToken((address,address,string,string,address,bytes))": "infinite",
        "updateVariableDebtToken((address,address,string,string,address,bytes))": "infinite"
      },
      "internal": {
        "_checkNoBorrowers(address)": "infinite",
        "_checkNoSuppliers(address)": "infinite",
        "_onlyAssetListingOrPoolAdmins()": "infinite",
        "_onlyEmergencyAdmin()": "infinite",
        "_onlyPoolAdmin()": "infinite",
        "_onlyPoolOrEmergencyAdmin()": "infinite",
        "_onlyRiskOrPoolAdmins()": "infinite",
        "getRevision()": "infinite"
      }
    }
  },
  "storageLayout": {
    "storage": [
      {
        "astId": 16270,
        "contract": "project/contracts/protocol/pool/PoolConfigurator.sol:PoolConfigurator",
        "label": "lastInitializedRevision",
        "offset": 0,
        "slot": "0",
        "type": "t_uint256"
      },
      {
        "astId": 16273,
        "contract": "project/contracts/protocol/pool/PoolConfigurator.sol:PoolConfigurator",
        "label": "initializing",
        "offset": 0,
        "slot": "1",
        "type": "t_bool"
      },
      {
        "astId": 16343,
        "contract": "project/contracts/protocol/pool/PoolConfigurator.sol:PoolConfigurator",
        "label": "______gap",
        "offset": 0,
        "slot": "2",
        "type": "t_array(t_uint256)50_storage"
      },
      {
        "astId": 30222,
        "contract": "project/contracts/protocol/pool/PoolConfigurator.sol:PoolConfigurator",
        "label": "_addressesProvider",
        "offset": 0,
        "slot": "52",
        "type": "t_contract(IPoolAddressesProvider)6237"
      },
      {
        "astId": 30225,
        "contract": "project/contracts/protocol/pool/PoolConfigurator.sol:PoolConfigurator",
        "label": "_pool",
        "offset": 0,
        "slot": "53",
        "type": "t_contract(IPool)6028"
      }
    ],
    "types": {
      "t_array(t_uint256)50_storage": {
        "base": "t_uint256",
        "encoding": "inplace",
        "label": "uint256[50]",
        "numberOfBytes": "1600"
      },
      "t_bool": {
        "encoding": "inplace",
        "label": "bool",
        "numberOfBytes": "1"
      },
      "t_contract(IPool)6028": {
        "encoding": "inplace",
        "label": "contract IPool",
        "numberOfBytes": "20"
      },
      "t_contract(IPoolAddressesProvider)6237": {
        "encoding": "inplace",
        "label": "contract IPoolAddressesProvider",
        "numberOfBytes": "20"
      },
      "t_uint256": {
        "encoding": "inplace",
        "label": "uint256",
        "numberOfBytes": "32"
      }
    }
  },
  "userdoc": {
    "kind": "user",
    "methods": {
      "configureReserveAsCollateral(address,uint256,uint256,uint256)": {
        "notice": "Configures the reserve collateralization parameters."
      },
      "dropReserve(address)": {
        "notice": "Drops a reserve entirely."
      },
      "initReserves((address,address,address,uint8,address,address,address,address,string,string,string,string,string,string,bytes)[])": {
        "notice": "Initializes multiple reserves."
      },
      "setAssetEModeCategory(address,uint8)": {
        "notice": "Assign an efficiency mode (eMode) category to asset."
      },
      "setBorrowCap(address,uint256)": {
        "notice": "Updates the borrow cap of a reserve."
      },
      "setBorrowableInIsolation(address,bool)": {
        "notice": "Sets the borrowable in isolation flag for the reserve."
      },
      "setDebtCeiling(address,uint256)": {
        "notice": "Sets the debt ceiling for an asset."
      },
      "setEModeCategory(uint8,uint16,uint16,uint16,address,string)": {
        "notice": "Adds a new efficiency mode (eMode) category."
      },
      "setLiquidationProtocolFee(address,uint256)": {
        "notice": "Updates the liquidation protocol fee of reserve."
      },
      "setPoolPause(bool)": {
        "notice": "Pauses or unpauses all the protocol reserves. In the paused state all the protocol interactions are suspended."
      },
      "setReserveActive(address,bool)": {
        "notice": "Activate or deactivate a reserve"
      },
      "setReserveBorrowing(address,bool)": {
        "notice": "Configures borrowing on a reserve."
      },
      "setReserveFactor(address,uint256)": {
        "notice": "Updates the reserve factor of a reserve."
      },
      "setReserveFlashLoaning(address,bool)": {
        "notice": "Enable or disable flashloans on a reserve"
      },
      "setReserveFreeze(address,bool)": {
        "notice": "Freeze or unfreeze a reserve. A frozen reserve doesn't allow any new supply, borrow or rate swap but allows repayments, liquidations, rate rebalances and withdrawals."
      },
      "setReserveInterestRateStrategyAddress(address,address)": {
        "notice": "Sets the interest rate strategy of a reserve."
      },
      "setReservePause(address,bool)": {
        "notice": "Pauses a reserve. A paused reserve does not allow any interaction (supply, borrow, repay, swap interest rate, liquidate, atoken transfers)."
      },
      "setReserveStableRateBorrowing(address,bool)": {
        "notice": "Enable or disable stable rate borrowing on a reserve."
      },
      "setSiloedBorrowing(address,bool)": {
        "notice": "Sets siloed borrowing for an asset"
      },
      "setSupplyCap(address,uint256)": {
        "notice": "Updates the supply cap of a reserve."
      },
      "setUnbackedMintCap(address,uint256)": {
        "notice": "Updates the unbacked mint cap of reserve."
      },
      "updateBridgeProtocolFee(uint256)": {
        "notice": "Updates the bridge fee collected by the protocol reserves."
      },
      "updateFlashloanPremiumToProtocol(uint128)": {
        "notice": "Updates the flash loan premium collected by protocol reserves"
      },
      "updateFlashloanPremiumTotal(uint128)": {
        "notice": "Updates the total flash loan premium. Total flash loan premium consists of two parts: - A part is sent to aToken holders as extra balance - A part is collected by the protocol reserves"
      },
      "updateStableDebtToken((address,address,string,string,address,bytes))": {
        "notice": "Updates the stable debt token implementation for the reserve."
      },
      "updateVariableDebtToken((address,address,string,string,address,bytes))": {
        "notice": "Updates the variable debt token implementation for the asset."
      }
    },
    "version": 1
  },
  "argsData": "0x",
  "libraries": {
    "ConfiguratorLogic": "0x2991c677d31df8e8eae3ee48e620ccd6bb7d2afa"
  },
  "transaction": {
    "hash": "0xa70e6fb171fa37c2e04911f71ff3dbd544677b3216fb9951c0796d9ea2ced258",
    "nonce": "0x1b9",
    "origin": "0xe55d6fbfd2da1562187bbc5b874a070a490f410b"
  }
}